{"abi":[{"type":"constructor","inputs":[{"name":"_owner","type":"address","internalType":"address"}],"stateMutability":"nonpayable"},{"type":"function","name":"ANY_DELEGATE","inputs":[],"outputs":[{"name":"","type":"address","internalType":"address"}],"stateMutability":"view"},{"type":"function","name":"DOMAIN_VERSION","inputs":[],"outputs":[{"name":"","type":"string","internalType":"string"}],"stateMutability":"view"},{"type":"function","name":"NAME","inputs":[],"outputs":[{"name":"","type":"string","internalType":"string"}],"stateMutability":"view"},{"type":"function","name":"ROOT_AUTHORITY","inputs":[],"outputs":[{"name":"","type":"bytes32","internalType":"bytes32"}],"stateMutability":"view"},{"type":"function","name":"VERSION","inputs":[],"outputs":[{"name":"","type":"string","internalType":"string"}],"stateMutability":"view"},{"type":"function","name":"acceptOwnership","inputs":[],"outputs":[],"stateMutability":"nonpayable"},{"type":"function","name":"disableDelegation","inputs":[{"name":"_delegation","type":"tuple","internalType":"struct Delegation","components":[{"name":"delegate","type":"address","internalType":"address"},{"name":"delegator","type":"address","internalType":"address"},{"name":"authority","type":"bytes32","internalType":"bytes32"},{"name":"caveats","type":"tuple[]","internalType":"struct Caveat[]","components":[{"name":"enforcer","type":"address","internalType":"address"},{"name":"terms","type":"bytes","internalType":"bytes"},{"name":"args","type":"bytes","internalType":"bytes"}]},{"name":"salt","type":"uint256","internalType":"uint256"},{"name":"signature","type":"bytes","internalType":"bytes"}]}],"outputs":[],"stateMutability":"nonpayable"},{"type":"function","name":"disabledDelegations","inputs":[{"name":"delegationHash","type":"bytes32","internalType":"bytes32"}],"outputs":[{"name":"isDisabled","type":"bool","internalType":"bool"}],"stateMutability":"view"},{"type":"function","name":"eip712Domain","inputs":[],"outputs":[{"name":"fields","type":"bytes1","internalType":"bytes1"},{"name":"name","type":"string","internalType":"string"},{"name":"version","type":"string","internalType":"string"},{"name":"chainId","type":"uint256","internalType":"uint256"},{"name":"verifyingContract","type":"address","internalType":"address"},{"name":"salt","type":"bytes32","internalType":"bytes32"},{"name":"extensions","type":"uint256[]","internalType":"uint256[]"}],"stateMutability":"view"},{"type":"function","name":"enableDelegation","inputs":[{"name":"_delegation","type":"tuple","internalType":"struct Delegation","components":[{"name":"delegate","type":"address","internalType":"address"},{"name":"delegator","type":"address","internalType":"address"},{"name":"authority","type":"bytes32","internalType":"bytes32"},{"name":"caveats","type":"tuple[]","internalType":"struct Caveat[]","components":[{"name":"enforcer","type":"address","internalType":"address"},{"name":"terms","type":"bytes","internalType":"bytes"},{"name":"args","type":"bytes","internalType":"bytes"}]},{"name":"salt","type":"uint256","internalType":"uint256"},{"name":"signature","type":"bytes","internalType":"bytes"}]}],"outputs":[],"stateMutability":"nonpayable"},{"type":"function","name":"getDelegationHash","inputs":[{"name":"_input","type":"tuple","internalType":"struct Delegation","components":[{"name":"delegate","type":"address","internalType":"address"},{"name":"delegator","type":"address","internalType":"address"},{"name":"authority","type":"bytes32","internalType":"bytes32"},{"name":"caveats","type":"tuple[]","internalType":"struct Caveat[]","components":[{"name":"enforcer","type":"address","internalType":"address"},{"name":"terms","type":"bytes","internalType":"bytes"},{"name":"args","type":"bytes","internalType":"bytes"}]},{"name":"salt","type":"uint256","internalType":"uint256"},{"name":"signature","type":"bytes","internalType":"bytes"}]}],"outputs":[{"name":"","type":"bytes32","internalType":"bytes32"}],"stateMutability":"pure"},{"type":"function","name":"getDomainHash","inputs":[],"outputs":[{"name":"","type":"bytes32","internalType":"bytes32"}],"stateMutability":"view"},{"type":"function","name":"owner","inputs":[],"outputs":[{"name":"","type":"address","internalType":"address"}],"stateMutability":"view"},{"type":"function","name":"pause","inputs":[],"outputs":[],"stateMutability":"nonpayable"},{"type":"function","name":"paused","inputs":[],"outputs":[{"name":"","type":"bool","internalType":"bool"}],"stateMutability":"view"},{"type":"function","name":"pendingOwner","inputs":[],"outputs":[{"name":"","type":"address","internalType":"address"}],"stateMutability":"view"},{"type":"function","name":"redeemDelegations","inputs":[{"name":"_permissionContexts","type":"bytes[]","internalType":"bytes[]"},{"name":"_modes","type":"bytes32[]","internalType":"ModeCode[]"},{"name":"_executionCallDatas","type":"bytes[]","internalType":"bytes[]"}],"outputs":[],"stateMutability":"nonpayable"},{"type":"function","name":"renounceOwnership","inputs":[],"outputs":[],"stateMutability":"nonpayable"},{"type":"function","name":"transferOwnership","inputs":[{"name":"newOwner","type":"address","internalType":"address"}],"outputs":[],"stateMutability":"nonpayable"},{"type":"function","name":"unpause","inputs":[],"outputs":[],"stateMutability":"nonpayable"},{"type":"event","name":"DisabledDelegation","inputs":[{"name":"delegationHash","type":"bytes32","indexed":true,"internalType":"bytes32"},{"name":"delegator","type":"address","indexed":true,"internalType":"address"},{"name":"delegate","type":"address","indexed":true,"internalType":"address"},{"name":"delegation","type":"tuple","indexed":false,"internalType":"struct Delegation","components":[{"name":"delegate","type":"address","internalType":"address"},{"name":"delegator","type":"address","internalType":"address"},{"name":"authority","type":"bytes32","internalType":"bytes32"},{"name":"caveats","type":"tuple[]","internalType":"struct Caveat[]","components":[{"name":"enforcer","type":"address","internalType":"address"},{"name":"terms","type":"bytes","internalType":"bytes"},{"name":"args","type":"bytes","internalType":"bytes"}]},{"name":"salt","type":"uint256","internalType":"uint256"},{"name":"signature","type":"bytes","internalType":"bytes"}]}],"anonymous":false},{"type":"event","name":"EIP712DomainChanged","inputs":[],"anonymous":false},{"type":"event","name":"EnabledDelegation","inputs":[{"name":"delegationHash","type":"bytes32","indexed":true,"internalType":"bytes32"},{"name":"delegator","type":"address","indexed":true,"internalType":"address"},{"name":"delegate","type":"address","indexed":true,"internalType":"address"},{"name":"delegation","type":"tuple","indexed":false,"internalType":"struct Delegation","components":[{"name":"delegate","type":"address","internalType":"address"},{"name":"delegator","type":"address","internalType":"address"},{"name":"authority","type":"bytes32","internalType":"bytes32"},{"name":"caveats","type":"tuple[]","internalType":"struct Caveat[]","components":[{"name":"enforcer","type":"address","internalType":"address"},{"name":"terms","type":"bytes","internalType":"bytes"},{"name":"args","type":"bytes","internalType":"bytes"}]},{"name":"salt","type":"uint256","internalType":"uint256"},{"name":"signature","type":"bytes","internalType":"bytes"}]}],"anonymous":false},{"type":"event","name":"OwnershipTransferStarted","inputs":[{"name":"previousOwner","type":"address","indexed":true,"internalType":"address"},{"name":"newOwner","type":"address","indexed":true,"internalType":"address"}],"anonymous":false},{"type":"event","name":"OwnershipTransferred","inputs":[{"name":"previousOwner","type":"address","indexed":true,"internalType":"address"},{"name":"newOwner","type":"address","indexed":true,"internalType":"address"}],"anonymous":false},{"type":"event","name":"Paused","inputs":[{"name":"account","type":"address","indexed":false,"internalType":"address"}],"anonymous":false},{"type":"event","name":"RedeemedDelegation","inputs":[{"name":"rootDelegator","type":"address","indexed":true,"internalType":"address"},{"name":"redeemer","type":"address","indexed":true,"internalType":"address"},{"name":"delegation","type":"tuple","indexed":false,"internalType":"struct Delegation","components":[{"name":"delegate","type":"address","internalType":"address"},{"name":"delegator","type":"address","internalType":"address"},{"name":"authority","type":"bytes32","internalType":"bytes32"},{"name":"caveats","type":"tuple[]","internalType":"struct Caveat[]","components":[{"name":"enforcer","type":"address","internalType":"address"},{"name":"terms","type":"bytes","internalType":"bytes"},{"name":"args","type":"bytes","internalType":"bytes"}]},{"name":"salt","type":"uint256","internalType":"uint256"},{"name":"signature","type":"bytes","internalType":"bytes"}]}],"anonymous":false},{"type":"event","name":"SetDomain","inputs":[{"name":"domainHash","type":"bytes32","indexed":true,"internalType":"bytes32"},{"name":"name","type":"string","indexed":false,"internalType":"string"},{"name":"domainVersion","type":"string","indexed":false,"internalType":"string"},{"name":"chainId","type":"uint256","indexed":false,"internalType":"uint256"},{"name":"contractAddress","type":"address","indexed":true,"internalType":"address"}],"anonymous":false},{"type":"event","name":"Unpaused","inputs":[{"name":"account","type":"address","indexed":false,"internalType":"address"}],"anonymous":false},{"type":"error","name":"AlreadyDisabled","inputs":[]},{"type":"error","name":"AlreadyEnabled","inputs":[]},{"type":"error","name":"BatchDataLengthMismatch","inputs":[]},{"type":"error","name":"CannotUseADisabledDelegation","inputs":[]},{"type":"error","name":"ECDSAInvalidSignature","inputs":[]},{"type":"error","name":"ECDSAInvalidSignatureLength","inputs":[{"name":"length","type":"uint256","internalType":"uint256"}]},{"type":"error","name":"ECDSAInvalidSignatureS","inputs":[{"name":"s","type":"bytes32","internalType":"bytes32"}]},{"type":"error","name":"EmptySignature","inputs":[]},{"type":"error","name":"EnforcedPause","inputs":[]},{"type":"error","name":"ExpectedPause","inputs":[]},{"type":"error","name":"InvalidAuthority","inputs":[]},{"type":"error","name":"InvalidDelegate","inputs":[]},{"type":"error","name":"InvalidDelegator","inputs":[]},{"type":"error","name":"InvalidEOASignature","inputs":[]},{"type":"error","name":"InvalidERC1271Signature","inputs":[]},{"type":"error","name":"InvalidShortString","inputs":[]},{"type":"error","name":"OwnableInvalidOwner","inputs":[{"name":"owner","type":"address","internalType":"address"}]},{"type":"error","name":"OwnableUnauthorizedAccount","inputs":[{"name":"account","type":"address","internalType":"address"}]},{"type":"error","name":"StringTooLong","inputs":[{"name":"str","type":"string","internalType":"string"}]}],"bytecode":{"object":"0x610160346200022757601f6200295538819003918201601f19168301916001600160401b038311848410176200022b57808492604094855283396020938491810103126200022757516001600160a01b03918282169182900362000227578051916200006b836200023f565b6011835284830193702232b632b3b0ba34b7b726b0b730b3b2b960791b91828652835162000099816200023f565b6001815287810191603160f81b9384845281156200021057917f04a46d9007577c7ff1e513b900545162ec25d25991ae3dc60cf26ec01a84806d9391620001bc9360018060a01b03198060015416600155825f54918216175f55167f8be0079c531659141344cd1fd0a4f28419497f9722a3daafe3b4186f6b6457e05f80a36200012388620002d5565b98610120998a5262000135826200046d565b98610140998a5251902060e052519020976101009889524660a0526200015a620005b8565b6080523060c0526200016b6200029b565b938651956200017a876200023f565b601187528287015286519062000190826200023f565b6001825282820152620001ae8751966060885260608801906200025b565b91868303908701526200025b565b9246858201528030940390a35191612330938462000625853960805184611ec2015260a05184611f7d015260c05184611e8c015260e05184611f1101525183611f37015251826111160152518161113f0152f35b8651631e4fbdf760e01b81525f6004820152602490fd5b5f80fd5b634e487b7160e01b5f52604160045260245ffd5b604081019081106001600160401b038211176200022b57604052565b91908251928382525f5b84811062000286575050825f602080949584010152601f8019910116010190565b60208183018101518483018201520162000265565b60c0516001600160a01b0316301480620002c9575b15620002bc5760805190565b620002c6620005b8565b90565b5060a0514614620002b0565b805160209081811015620003385750601f8251116200031057808251920151908083106200030257501790565b825f19910360031b1b161790565b6200033460405192839263305a27a960e01b8452600484015260248301906200025b565b0390fd5b906001600160401b0382116200022b57600254926001938481811c9116801562000462575b838210146200044e57601f811162000417575b5081601f8411600114620003af57509282939183925f94620003a3575b50501b915f199060031b1c19161760025560ff90565b015192505f806200038d565b919083601f19811660025f52845f20945f905b88838310620003fc5750505010620003e3575b505050811b0160025560ff90565b01515f1960f88460031b161c191690555f8080620003d5565b858701518855909601959485019487935090810190620003c2565b60025f5284601f845f20920160051c820191601f860160051c015b8281106200044257505062000370565b5f815501859062000432565b634e487b7160e01b5f52602260045260245ffd5b90607f16906200035d565b805160209190828110156200049c575090601f8251116200031057808251920151908083106200030257501790565b6001600160401b0381116200022b576003928354926001938481811c91168015620005ad575b838210146200044e57601f811162000577575b5081601f84116001146200051257509282939183925f9462000506575b50501b915f1990841b1c191617905560ff90565b015192505f80620004f2565b919083601f198116875f52845f20945f905b888383106200055c575050501062000544575b505050811b01905560ff90565b01515f1983861b60f8161c191690555f808062000537565b85870151885590960195948501948793509081019062000524565b855f5284601f845f20920160051c820191601f860160051c015b828110620005a1575050620004d5565b5f815501859062000591565b90607f1690620004c2565b60e051610100516040519060208201927f8b73c3c69bb8fe3d512ecc4cf759cc79239f7b179b0ffacaa9a75d522b39400f8452604083015260608201524660808201523060a082015260a0815260c0810181811060018060401b038211176200022b576040525190209056fe60a0806040526004361015610012575f80fd5b5f3560e01c9081631b13cac2146115db575080632d40d052146115ac5780633ed010151461150a5780633f4ba83a1461149957806349934047146113c157806358909ebc146113a55780635c975abb14611380578063661346071461135f578063715018a6146112fc57806379ba50971461127757806383ebb771146112555780638456cb59146111f457806384b0196e146110fe5780638da5cb5b146110d7578063a3f4df7e14611086578063acb8cc4914611045578063cef6d209146101de578063e30c3978146101b6578063f2fde38b146101455763ffa1ad74146100f8575f80fd5b34610141575f3660031901126101415761013d604051610117816116c8565b60058152640312e332e360dc1b6020820152604051918291602083526020830190611646565b0390f35b5f80fd5b34610141576020366003190112610141576004356001600160a01b038181169182900361014157610174611cfc565b816bffffffffffffffffffffffff60a01b60015416176001555f54167f38d16b8cac22d99fc7c124b9cd0de2d3fa1faef420bfe791d8c362d765e227005f80a3005b34610141575f366003190112610141576001546040516001600160a01b039091168152602090f35b34610141576060366003190112610141576004356001600160401b0381116101415761020e90369060040161171f565b906024356001600160401b0381116101415761022e90369060040161171f565b90916044356001600160401b0381116101415761024f90369060040161171f565b92909161025a611fa3565b83861480159061103b575b6110295761028361027587611935565b6040516080526080516116e3565b85608051526102a361029487611935565b601f1901602060805101611ae9565b6102ac86611935565b906102ba60405192836116e3565b8682526102d6601f196102cc89611935565b0160208401611ae9565b5f5b878110610bb55750505f5b868110610a3c57505f5b86811061066857505f5b8681106104ce57865f5b81811061030a57005b61031681608051611b67565b5151610325575b600101610301565b905f905b61033583608051611b67565b51518210156104c65761034a83608051611b67565b5161035784608051611b67565b51515f1981019081116104b2576001600160a01b039160209161037991611b67565b51015116916103948161038e86608051611b67565b51611b67565b51604051936020855260e085019160018060a01b03815116602087015260018060a01b0360208201511660408701526040810151606087015260608101519260c0608088015283518091526101006020818901918360051b8a01019501915f905b8082106104575750505050856001959661044d8360807f40dadaa36c6c2e3d7317e24757451ffb2d603d875f0ad5e92c5dd156573b18739501519060a09182850152015195601f198382030160c08401523396611646565b0390a30190610329565b909192956020806104a66001938d60ff199082030188528a5190858060a01b0382511681526040610495858401516060878501526060840190611646565b920151906040818403910152611646565b980194019201906103f5565b634e487b7160e01b5f52601160045260245ffd5b91905061031d565b6104da81608051611b67565b51516104e9575b6001016102f7565b6104f581608051611b67565b5151805b61050357506104e1565b61050f82608051611b67565b51815f1981011190816104b25761052c6060915f19850190611b67565b510151805191825b61054a5750505061054490611cf0565b806104f9565b825f198101116104b2578992889188908b6105ae896001600160a01b036105745f1988018a611b67565b515116926105a782602061058b5f198b018d611b67565b51015197604061059e5f198c018e611b67565b5101519c611bad565b3597611b05565b9590926105bb8b8d611b67565b51906104b2576105cf905f198b0190611b67565b516105dc8b608051611b67565b515f99906001600160a01b03906020906105fa905f198f0190611b67565b5101511691843b15610141575f96879361062d926040519b8c998a98899763ed46336760e01b8952339660048a01611bbd565b03925af191821561065d576106479261064e575b50611cf0565b9182610534565b6106579061169a565b8c610641565b6040513d5f823e3d90fd5b61067481608051611b67565b51516106ff57610685818488611bad565b35905f610693828888611b05565b90936106c060405195869384936335a4725960e21b855260048501526040602485015260448401916117a8565b038183335af191821561065d576001926106dd575b505b016102ed565b6106f8903d805f833e6106f081836116e3565b810190611c1f565b50886106d5565b9493909295915f905b61071487608051611b67565b515182101561084e578660606107308461038e84608051611b67565b510151945f5b878b8a895184101561083a578886888a879695838f9681600160a01b600190036107608c8b611b67565b5151169861076e8c82611b67565b51602001519b61077d91611b67565b51604001519561078c92611bad565b359561079792611b05565b9a6107a29197611b67565b51906107ad91611b67565b5160805190926001600160a01b03918d916107c791611b67565b51906107d291611b67565b51602001511691843b15610141575f968793610807926040519c8d998a9889976350a2c19560e11b8952339660048a01611bbd565b03925af190811561065d578960018d928d968c9561082b575b500192505050610736565b6108349061169a565b8f610820565b505050509290506001919450019092610708565b929693919495905061086281608051611b67565b5161086f82608051611b67565b515190815f198101116104b2576108e5915f916001600160a01b039160209161089b915f190190611b67565b510151166108aa84878b611bad565b3590826108b8868b8b611b05565b919093604051968795869485936335a4725960e21b855260048501526040602485015260448401916117a8565b03925af1801561065d57610a22575b5061090181608051611b67565b5151805b61091257506001906106d7565b61091e82608051611b67565b51815f1981011190816104b25761093b6060915f19850190611b67565b510151805191825b6109595750505061095390611cf0565b80610905565b825f198101116104b2578992889188908b610983896001600160a01b036105745f1988018a611b67565b9590926109908b8d611b67565b51906104b2576109a4905f198b0190611b67565b516109b18b608051611b67565b515f99906001600160a01b03906020906109cf905f198f0190611b67565b5101511691843b15610141575f968793610a02926040519b8c998a98899763d3eddcc560e01b8952339660048a01611bbd565b03925af191821561065d57610a1b9261064e5750611cf0565b9182610943565b610a35903d805f833e6106f081836116e3565b50876108f4565b610a4881608051611b67565b5151610a57575b6001016102e3565b9493909295915f905b610a6c87608051611b67565b5151821015610ba657866060610a888461038e84608051611b67565b510151945f5b878b8a8951841015610b92578886888a879695838f9681600160a01b60019003610ab88c8b611b67565b51511698610ac68c82611b67565b51602001519b610ad591611b67565b516040015195610ae492611bad565b3595610aef92611b05565b9a610afa9197611b67565b5190610b0591611b67565b5160805190926001600160a01b03918d91610b1f91611b67565b5190610b2a91611b67565b51602001511691843b15610141575f968793610b5f926040519c8d998a98899763414c3e3360e01b8952339660048a01611bbd565b03925af190811561065d578960018d928d968c95610b83575b500192505050610a8e565b610b8c9061169a565b8f610b78565b505050509290506001919450019092610a60565b92969495919493919050610a4f565b610bc0818984611b05565b6020828281010312610141578135916001600160401b03831161014157818101601f848301011215610141578281013590610bfa82611935565b93610c0860405195866116e3565b828552602085019084830160208560051b83860101011161014157602081840101915b60208560051b83860101018310610ff7575050505050508051155f14610ca45750600190604051610c5b816116ad565b5f8152610c6a82608051611b67565b52610c7781608051611b67565b50604051610c84816116ad565b5f8152610c918286611b67565b52610c9c8185611b67565b505b016102d8565b959097929486610cba8a60809a95979a51611b67565b52610cc789608051611b67565b50610cd28751611b7b565b9788610cde8b89611b67565b52610ce98a88611b67565b506001600160a01b03610cfb89611b5a565b51511633141580610fd8575b610f50575f5b8851811015610ea857610d20818a611b67565b51610d2a81611d0f565b610d34838d611b67565b5260208101516001600160a01b03163b610dca57610d9890610d8f610d848d610d6586610d5f611e89565b92611b67565b51906042916040519161190160f01b8352600283015260228201522090565b60a0830151906121bb565b909391936121f5565b602001516001600160a01b03908116911603610db8576001905b01610d0d565b604051630f6d9e4760e21b8152600490fd5b6020610e2191610de08d610d6586610d5f611e89565b8282015160a09092015160408051630b135d3f60e11b815260048101939093526024830152909384926001600160a01b031691839182916044830190611646565b03915afa90811561065d575f91610e65575b506001600160e01b0319166374eca2c160e11b01610e5357600190610db2565b60405163155ff42760e01b8152600490fd5b90506020813d602011610ea0575b81610e80602093836116e3565b8101031261014157516001600160e01b031981168103610141578c610e33565b3d9150610e73565b509091929394959796975f5b8951811015610fc657610ec7818a611b67565b515f52600460205260ff60405f205416610fb4578951805f198101116104b2575f19018114610f96576040610efc828c611b67565b5101516001820182116104b257610f16600183018b611b67565b5103610f84576001600160a01b03610f31600183018c611b67565b515116610a118114159081610f62575b50610f50576001905b01610eb4565b604051632d618d8160e21b8152600490fd5b90506001600160a01b036020610f78848e611b67565b5101511614158c610f41565b604051636f6a1b8760e11b8152600490fd5b5f196040610fa4838d611b67565b51015103610f8457600190610f4a565b6040516302dd502960e11b8152600490fd5b50939750939760019195929650610c9e565b50610a116001600160a01b03610fed8a611b5a565b5151161415610d07565b82356001600160401b0381116101415760209161101e8392838a890191878a010101611992565b815201920191610c2b565b604051631bcaf69f60e01b8152600490fd5b5081861415610265565b34610141575f3660031901126101415761013d604051611064816116c8565b60018152603160f81b6020820152604051918291602083526020830190611646565b34610141575f3660031901126101415761013d6040516110a5816116c8565b60118152702232b632b3b0ba34b7b726b0b730b3b2b960791b6020820152604051918291602083526020830190611646565b34610141575f366003190112610141575f546040516001600160a01b039091168152602090f35b34610141575f3660031901126101415761119761113a7f0000000000000000000000000000000000000000000000000000000000000000611fc4565b6111637f00000000000000000000000000000000000000000000000000000000000000006120e8565b60405190611170826116ad565b5f82526111a5602091604051958695600f60f81b875260e0602088015260e0870190611646565b908582036040870152611646565b4660608501523060808501525f60a085015283810360c0850152602080845192838152019301915f5b8281106111dd57505050500390f35b8351855286955093810193928101926001016111ce565b34610141575f3660031901126101415761120c611cfc565b611214611fa3565b6001805460ff60a01b1916600160a01b1790556040513381527f62e78cea01bee320cd4e420270b5ea74000d11b0c9f74754ebdbfc544b05a25890602090a1005b34610141575f36600319011261014157602061126f611e89565b604051908152f35b34610141575f366003190112610141576001546001600160a01b0333818316036112e4576bffffffffffffffffffffffff60a01b8092166001555f549133908316175f553391167f8be0079c531659141344cd1fd0a4f28419497f9722a3daafe3b4186f6b6457e05f80a3005b60405163118cdaa760e01b8152336004820152602490fd5b34610141575f36600319011261014157611314611cfc565b600180546001600160a01b03199081169091555f80549182168155906001600160a01b03167f8be0079c531659141344cd1fd0a4f28419497f9722a3daafe3b4186f6b6457e08280a3005b3461014157602061126f61137b36611376366115f4565b611992565b611d0f565b34610141575f36600319011261014157602060ff60015460a01c166040519015158152f35b34610141575f366003190112610141576020604051610a118152f35b34610141576113cf366115f4565b60208101906113dd82611763565b6001600160a01b0392903390841603611487576113fd61137b3684611992565b90815f52600460205260ff60405f205416611476576114537fea589ba9473ee1fe77d352c7ed919747715a5d22931b972de9b02a907c66d5dd91835f52600460205260405f20600160ff19825416179055611763565b9361145d84611763565b6114718260405193849316971695826117c8565b0390a4005b604051625ecddb60e01b8152600490fd5b60405163b9f0f17160e01b8152600490fd5b34610141575f366003190112610141576114b1611cfc565b60015460ff8160a01c16156114f85760ff60a01b19166001556040513381527f5db9ee0a495bf2e6ff9c91a7834c1ba4fdd244a5e8aa4e537bd38aeae4b073aa90602090a1005b604051638dfc202b60e01b8152600490fd5b3461014157611518366115f4565b602081019061152682611763565b6001600160a01b03929033908416036114875761154661137b3684611992565b90815f52600460205260ff60405f2054161561159a576114537f3feadce88fc1b49db633a56fd5307ed6ee18734df83bcc4011daa720c9cd95f191835f52600460205260405f2060ff198154169055611763565b604051637952fbad60e11b8152600490fd5b34610141576020366003190112610141576004355f526004602052602060ff60405f2054166040519015158152f35b34610141575f366003190112610141575f198152602090f35b6003199060208183011261014157600435916001600160401b038311610141578260c0920301126101415760040190565b5f5b8381106116365750505f910152565b8181015183820152602001611627565b9060209161165f81518092818552858086019101611625565b601f01601f1916010190565b60c081019081106001600160401b0382111761168657604052565b634e487b7160e01b5f52604160045260245ffd5b6001600160401b03811161168657604052565b602081019081106001600160401b0382111761168657604052565b604081019081106001600160401b0382111761168657604052565b90601f801991011681019081106001600160401b0382111761168657604052565b6001600160401b03811161168657601f01601f191660200190565b9181601f84011215610141578235916001600160401b038311610141576020808501948460051b01011161014157565b35906001600160a01b038216820361014157565b356001600160a01b03811681036101415790565b9035601e19823603018112156101415701602081359101916001600160401b03821161014157813603831361014157565b908060209392818452848401375f828201840152601f01601f1916010190565b60208082526001600160a01b03929060e0830190846117e68461174f565b16818501526117f681840161174f565b9085604092166040860152606092604085013560608701526060850135601e198636030181121561014157850196873594838901986001600160401b038711610141578660051b938436038b136101415796809594919760c060808c969596015252610100808a01918a010199965f93607e1982360301975b8786106118b257505050505050505050509061189d8260806118af9594013560a084015260a0810190611777565b9160c0601f19828603019101526117a8565b90565b9091929394959697989b60ff198c82030185528c358a811215610141578861192160019387839401906119148483018c6118eb8261174f565b1683528961190c6118fe8b870184611777565b838a880152838701916117a8565b940190611777565b91888185039101526117a8565b9e019501960194939897969592919061186f565b6001600160401b0381116116865760051b60200190565b81601f820112156101415780359061196382611704565b9261197160405194856116e3565b8284526020838301011161014157815f926020809301838601378301015290565b91909160c0818403126101415760408051916119ad8361166b565b82946119b88261174f565b84526020926119c884840161174f565b8585015282810135818601526001600160401b03936060808501358681116101415785019084601f8301121561014157813590611a0482611935565b94611a11815196876116e3565b828652848087019360051b8501019387851161014157858101935b858510611a67575050505050505060608501526080820135608085015260a08201359283116101415760a092611a62920161194c565b910152565b84358b81116101415782019084601f19838c030112610141578351908582018d811183821017611686578552611a9e89840161174f565b8252848301358d8111610141578b8a611ab99286010161194c565b8983015285830135918d831161014157611ada8c8b8096958196010161194c565b86820152815201940193611a2c565b5f5b828110611af757505050565b606082820152602001611aeb565b9190811015611b465760051b81013590601e19813603018212156101415701908135916001600160401b038311610141576020018236038113610141579190565b634e487b7160e01b5f52603260045260245ffd5b805115611b465760200190565b8051821015611b465760209160051b010190565b90611b8582611935565b611b9260405191826116e3565b8281528092611ba3601f1991611935565b0190602036910137565b9190811015611b465760051b0190565b96949093611bee611c019493611be060c0999c9b9760e08c5260e08c0190611646565b908a820360208c0152611646565b92604089015287830360608901526117a8565b60808501969096526001600160a01b0391821660a085015216910152565b60209081818403126101415780516001600160401b039182821161014157019083601f83011215610141578151611c5581611935565b94604092611c6660405197886116e3565b828752858088019360051b8601019482861161014157868101935b868510611c9357505050505050505090565b84518381116101415782019084603f83011215610141578882015190611cb882611704565b611cc4895191826116e3565b8281528689848601011161014157611ce58b949385948b8685019101611625565b815201940193611c81565b80156104b2575f190190565b5f546001600160a01b031633036112e457565b9060018060a01b03918281511692602093818584015116906040918285015195606092606087015192611d428451611b7b565b975f5b8551811015611dcd5780611d5a8d9288611b67565b51828b8251169101518381519101208a51938401917f80ad7e1b04ee6d994a125f4714ca0720908bd80ed16063ec8aee4b88e9253e2d83528b8501528984015288835260808301928084106001600160401b03851117611686576001938b52519020611dc6828d611b67565b5201611d45565b509450949550969150969484518681019182888251919201905f5b8a828210611e75575050505090611e0b816080949303601f1981018352826116e3565b519020920151928451958601967f88c1d2ecf185adf710588203a5f263f0ff61be0d33da39792cde19ba9aa4331e8852858701526060860152608085015260a084015260c083015260c0825260e08201908282106001600160401b03831117611686575251902090565b835185529384019390920191600101611de8565b307f00000000000000000000000000000000000000000000000000000000000000006001600160a01b03161480611f7a575b15611ee4577f000000000000000000000000000000000000000000000000000000000000000090565b60405160208101907f8b73c3c69bb8fe3d512ecc4cf759cc79239f7b179b0ffacaa9a75d522b39400f82527f000000000000000000000000000000000000000000000000000000000000000060408201527f000000000000000000000000000000000000000000000000000000000000000060608201524660808201523060a082015260a08152611f748161166b565b51902090565b507f00000000000000000000000000000000000000000000000000000000000000004614611ebb565b60ff60015460a01c16611fb257565b60405163d93c066560e01b8152600490fd5b60ff81146120025760ff811690601f8211611ff05760405191611fe6836116c8565b8252602082015290565b604051632cd44ac360e21b8152600490fd5b506040515f600254906001908260011c600184169283156120de575b60209485831085146120ca5782875286949081156120aa575060011461204d575b50506118af925003826116e3565b9093915060025f527f405787fa12a823e0f2b7631cc41b3ba8828b3321ca811111fa75cd3aa3bb5ace935f915b8183106120925750506118af93508201015f8061203f565b8554878401850152948501948694509183019161207a565b9150506118af94925060ff191682840152151560051b8201015f8061203f565b634e487b7160e01b5f52602260045260245ffd5b90607f169061201e565b60ff811461210a5760ff811690601f8211611ff05760405191611fe6836116c8565b506040515f600354906001908260011c600184169283156121b1575b60209485831085146120ca5782875286949081156120aa57506001146121545750506118af925003826116e3565b9093915060035f527fc2575a0e9e593c00f959f8c92f12db2869c3395a3b0502d05e2516446f71f85b935f915b8183106121995750506118af93508201015f8061203f565b85548784018501529485019486945091830191612181565b90607f1690612126565b81519190604183036121eb576121e49250602082015190606060408401519301515f1a90612278565b9192909190565b50505f9160029190565b60048110156122645780612207575050565b600181036122215760405163f645eedf60e01b8152600490fd5b600281036122425760405163fce698f760e01b815260048101839052602490fd5b60031461224c5750565b602490604051906335e2f38360e21b82526004820152fd5b634e487b7160e01b5f52602160045260245ffd5b91907f7fffffffffffffffffffffffffffffff5d576e7357a4501ddfe92f46681b20a084116122ef579160209360809260ff5f9560405194855216868401526040830152606082015282805260015afa1561065d575f516001600160a01b038116156122e557905f905f90565b505f906001905f90565b5050505f916003919056fea264697066735822122012fd28b834f393083e9e9cc626ab7ee685b36d234633fe75090b8da668308b9564736f6c63430008170033","linkReferences":{}},"methodIdentifiers":{"ANY_DELEGATE()":"58909ebc","DOMAIN_VERSION()":"acb8cc49","NAME()":"a3f4df7e","ROOT_AUTHORITY()":"1b13cac2","VERSION()":"ffa1ad74","acceptOwnership()":"79ba5097","disableDelegation((address,address,bytes32,(address,bytes,bytes)[],uint256,bytes))":"49934047","disabledDelegations(bytes32)":"2d40d052","eip712Domain()":"84b0196e","enableDelegation((address,address,bytes32,(address,bytes,bytes)[],uint256,bytes))":"3ed01015","getDelegationHash((address,address,bytes32,(address,bytes,bytes)[],uint256,bytes))":"66134607","getDomainHash()":"83ebb771","owner()":"8da5cb5b","pause()":"8456cb59","paused()":"5c975abb","pendingOwner()":"e30c3978","redeemDelegations(bytes[],bytes32[],bytes[])":"cef6d209","renounceOwnership()":"715018a6","transferOwnership(address)":"f2fde38b","unpause()":"3f4ba83a"},"id":84}