{"abi":[{"type":"constructor","inputs":[],"stateMutability":"nonpayable"},{"type":"function","name":"UPGRADE_INTERFACE_VERSION","inputs":[],"outputs":[{"name":"","type":"string","internalType":"string"}],"stateMutability":"view"},{"type":"function","name":"_getPythPriceExternal","inputs":[{"name":"token","type":"address","internalType":"address"}],"outputs":[{"name":"","type":"tuple","internalType":"struct PythStructs.Price","components":[{"name":"price","type":"int64","internalType":"int64"},{"name":"conf","type":"uint64","internalType":"uint64"},{"name":"expo","type":"int32","internalType":"int32"},{"name":"publishTime","type":"uint256","internalType":"uint256"}]}],"stateMutability":"view"},{"type":"function","name":"batchGetPrices","inputs":[{"name":"tokens","type":"address[]","internalType":"address[]"}],"outputs":[{"name":"prices","type":"uint256[]","internalType":"uint256[]"}],"stateMutability":"view"},{"type":"function","name":"getPrice","inputs":[{"name":"token","type":"address","internalType":"address"}],"outputs":[{"name":"price","type":"uint256","internalType":"uint256"}],"stateMutability":"view"},{"type":"function","name":"getPythContract","inputs":[],"outputs":[{"name":"","type":"address","internalType":"address"}],"stateMutability":"view"},{"type":"function","name":"getVersion","inputs":[],"outputs":[{"name":"","type":"string","internalType":"string"}],"stateMutability":"pure"},{"type":"function","name":"initialize","inputs":[{"name":"_owner","type":"address","internalType":"address"},{"name":"pythContract_","type":"address","internalType":"address"}],"outputs":[],"stateMutability":"nonpayable"},{"type":"function","name":"isPriceFresh","inputs":[{"name":"token","type":"address","internalType":"address"}],"outputs":[{"name":"","type":"bool","internalType":"bool"}],"stateMutability":"view"},{"type":"function","name":"maxConfidenceRatio","inputs":[],"outputs":[{"name":"","type":"uint256","internalType":"uint256"}],"stateMutability":"view"},{"type":"function","name":"maxPriceAge","inputs":[],"outputs":[{"name":"","type":"uint256","internalType":"uint256"}],"stateMutability":"view"},{"type":"function","name":"oracle","inputs":[],"outputs":[{"name":"","type":"address","internalType":"address"}],"stateMutability":"view"},{"type":"function","name":"owner","inputs":[],"outputs":[{"name":"","type":"address","internalType":"address"}],"stateMutability":"view"},{"type":"function","name":"priceFeeds","inputs":[{"name":"","type":"address","internalType":"address"}],"outputs":[{"name":"","type":"bytes32","internalType":"bytes32"}],"stateMutability":"view"},{"type":"function","name":"proxiableUUID","inputs":[],"outputs":[{"name":"","type":"bytes32","internalType":"bytes32"}],"stateMutability":"view"},{"type":"function","name":"pythContract","inputs":[],"outputs":[{"name":"","type":"address","internalType":"address"}],"stateMutability":"view"},{"type":"function","name":"removePriceFeed","inputs":[{"name":"token","type":"address","internalType":"address"}],"outputs":[],"stateMutability":"nonpayable"},{"type":"function","name":"renounceOwnership","inputs":[],"outputs":[],"stateMutability":"nonpayable"},{"type":"function","name":"setMaxConfidenceRatio","inputs":[{"name":"bps","type":"uint256","internalType":"uint256"}],"outputs":[],"stateMutability":"nonpayable"},{"type":"function","name":"setMaxPriceAge","inputs":[{"name":"seconds_","type":"uint256","internalType":"uint256"}],"outputs":[],"stateMutability":"nonpayable"},{"type":"function","name":"setPriceFeed","inputs":[{"name":"token","type":"address","internalType":"address"},{"name":"feedId","type":"bytes32","internalType":"bytes32"}],"outputs":[],"stateMutability":"nonpayable"},{"type":"function","name":"setStablecoin","inputs":[{"name":"token","type":"address","internalType":"address"},{"name":"isStablecoin","type":"bool","internalType":"bool"}],"outputs":[],"stateMutability":"nonpayable"},{"type":"function","name":"stablecoins","inputs":[{"name":"","type":"address","internalType":"address"}],"outputs":[{"name":"","type":"bool","internalType":"bool"}],"stateMutability":"view"},{"type":"function","name":"transferOwnership","inputs":[{"name":"newOwner","type":"address","internalType":"address"}],"outputs":[],"stateMutability":"nonpayable"},{"type":"function","name":"upgradeToAndCall","inputs":[{"name":"newImplementation","type":"address","internalType":"address"},{"name":"data","type":"bytes","internalType":"bytes"}],"outputs":[],"stateMutability":"payable"},{"type":"function","name":"version","inputs":[],"outputs":[{"name":"","type":"string","internalType":"string"}],"stateMutability":"view"},{"type":"event","name":"Initialized","inputs":[{"name":"version","type":"uint64","indexed":false,"internalType":"uint64"}],"anonymous":false},{"type":"event","name":"MaxConfidenceRatioUpdated","inputs":[{"name":"oldValue","type":"uint256","indexed":false,"internalType":"uint256"},{"name":"newValue","type":"uint256","indexed":false,"internalType":"uint256"}],"anonymous":false},{"type":"event","name":"MaxPriceAgeUpdated","inputs":[{"name":"oldValue","type":"uint256","indexed":false,"internalType":"uint256"},{"name":"newValue","type":"uint256","indexed":false,"internalType":"uint256"}],"anonymous":false},{"type":"event","name":"OwnershipTransferred","inputs":[{"name":"previousOwner","type":"address","indexed":true,"internalType":"address"},{"name":"newOwner","type":"address","indexed":true,"internalType":"address"}],"anonymous":false},{"type":"event","name":"PriceFeedRemoved","inputs":[{"name":"token","type":"address","indexed":true,"internalType":"address"}],"anonymous":false},{"type":"event","name":"PriceFeedSet","inputs":[{"name":"token","type":"address","indexed":true,"internalType":"address"},{"name":"feedId","type":"bytes32","indexed":true,"internalType":"bytes32"}],"anonymous":false},{"type":"event","name":"Upgraded","inputs":[{"name":"implementation","type":"address","indexed":true,"internalType":"address"}],"anonymous":false},{"type":"error","name":"AddressEmptyCode","inputs":[{"name":"target","type":"address","internalType":"address"}]},{"type":"error","name":"ConfidenceTooLow","inputs":[{"name":"conf","type":"uint64","internalType":"uint64"},{"name":"price","type":"uint64","internalType":"uint64"},{"name":"ratio","type":"uint256","internalType":"uint256"}]},{"type":"error","name":"ERC1967InvalidImplementation","inputs":[{"name":"implementation","type":"address","internalType":"address"}]},{"type":"error","name":"ERC1967NonPayable","inputs":[]},{"type":"error","name":"FailedCall","inputs":[]},{"type":"error","name":"InvalidInitialization","inputs":[]},{"type":"error","name":"InvalidPrice","inputs":[{"name":"token","type":"address","internalType":"address"},{"name":"price","type":"int64","internalType":"int64"}]},{"type":"error","name":"NoFeedConfigured","inputs":[{"name":"token","type":"address","internalType":"address"}]},{"type":"error","name":"NotInitializing","inputs":[]},{"type":"error","name":"OwnableInvalidOwner","inputs":[{"name":"owner","type":"address","internalType":"address"}]},{"type":"error","name":"OwnableUnauthorizedAccount","inputs":[{"name":"account","type":"address","internalType":"address"}]},{"type":"error","name":"PriceCalculationOverflow","inputs":[]},{"type":"error","name":"PriceScaleOverflow","inputs":[]},{"type":"error","name":"PriceScaleUnderflow","inputs":[]},{"type":"error","name":"UUPSUnauthorizedCallContext","inputs":[]},{"type":"error","name":"UUPSUnsupportedProxiableUUID","inputs":[{"name":"slot","type":"bytes32","internalType":"bytes32"}]}],"bytecode":{"object":"0x60a080604052346100cc57306080527ff0c57e16840df040f15088dc2f81fe391c3923bec73e23a9662efc9c229c6a009081549060ff8260401c166100bd57506001600160401b036002600160401b031982821601610078575b6040516117dc90816100d18239608051818181610a890152610b670152f35b6001600160401b031990911681179091556040519081527fc7f505b2f371ae2175ee4913f4499e1f2633a7b5936321eed1cdaeb6115181d290602090a15f8080610059565b63f92ee8a960e01b8152600490fd5b5f80fdfe60406080815260049081361015610014575f80fd5b5f3560e01c80630af1a39f146110f45780630d8e6e2c14610a4e5780631584410a146110d65780631ccbf9081461107a5780633669999414610f5657806341976e0914610f2a578063485cc95514610d435780634f1ef28614610aed57806352d1902d14610a7657806354fd4d5014610a4e57806356447ce8146109af5780636d1fdf6f14610925578063715018a6146109485780637d13ae2b1461092a5780637dc0d1d0146109255780638a32ada0146109255780638add9bee1461069f5780638da5cb5b1461066b5780639dcb511a146106345780639ed9f5fb14610549578063ad3cb1cc14610509578063adcb085a14610242578063f2fde38b14610217578063fa847836146101dd5763fceb00241461012f575f80fd5b346101d95760203660031901126101d957610148611122565b610150611613565b6001600160a01b03165f818152600360205282902054909290156101a257505f9082825260036020528120557ffd58461c4683df397133c7e91fe2aa71559919b405f9e09c9c3af7e875f54e3b5f80a2005b6020606492519162461bcd60e51b83528201526012602482015271139bc8199959590818dbdb999a59dd5c995960721b6044820152fd5b5f80fd5b50346101d95760203660031901126101d9576020916001600160a01b03610202611122565b165f52825260ff815f20541690519015158152f35b346101d95760203660031901126101d957610240610233611122565b61023b611613565b6115a2565b005b5090346101d957816003193601126101d95761025c611122565b9160249283359061026b611613565b6001600160a01b039081169061028282151561133a565b82156104d55760806044915f541685519283809263052571af60e51b8252878a830152610e108b8301525afa5f91816104a4575b506102fd57835162461bcd60e51b81526020818701526019818801527f466565642049442076616c69646174696f6e206661696c6564000000000000006044820152606490fd5b8486825f87945160070b1315610462579085939291855f5260209060038252845f205461035a575b50505050825f5260036020525f20557f65e4ba705db6091cf209ad98e61b9b8203308a9bb349e9add9809174481dbd625f80a3005b84516341976e0960e01b81528481018890529082828581305afa5f9281610430575b50610388575b50610325565b6103979192939495965061164b565b818181111561042257906103aa91611563565b606481029080820460641490151715610410576032916103c991611584565b116103d8578080879594610382565b90601591606494519362461bcd60e51b85528401528201527450726963652064696666657273206279203e35302560581b6044820152fd5b83601186634e487b7160e01b5f52525ffd5b61042b91611563565b6103aa565b975091508287813d811161045b575b61044981836111cb565b810103126101d957889651918a61037c565b503d61043f565b506019906020606494519362461bcd60e51b85528401528201527f496e76616c69642066656564202d207a65726f207072696365000000000000006044820152fd5b6104c791925060803d6080116104ce575b6104bf81836111cb565b810190611251565b905f6102b6565b503d6104b5565b835162461bcd60e51b8152602081870152600f818801526e125b9d985b1a590819995959081251608a1b6044820152606490fd5b50346101d9575f3660031901126101d957805161054591610529826111af565b60058252640352e302e360dc1b60208301525191829182611138565b0390f35b50346101d95760203660031901126101d9578135610565611613565b600a81106105f1576103e881116105ae577f5ee7c2a38f81f8ccde48d19f8aa8904f2c0f5e5ef5890632822f3d12b439544e9250600254908060025582519182526020820152a1005b815162461bcd60e51b8152602081850152601960248201527f436f6e666964656e636520726174696f20746f6f2068696768000000000000006044820152606490fd5b815162461bcd60e51b8152602081850152601860248201527f436f6e666964656e636520726174696f20746f6f206c6f7700000000000000006044820152606490fd5b50346101d95760203660031901126101d9576020906001600160a01b03610659611122565b165f5260038252805f20549051908152f35b50346101d9575f3660031901126101d9575f805160206117878339815191525490516001600160a01b039091168152602090f35b5090346101d9576020806003193601126101d95767ffffffffffffffff9082358281116101d957366023820112156101d95780840135938385116101d957602490818301928236918860051b0101116101d9576106fe869597966114ff565b9661070b875198896111cb565b858852610717866114ff565b8886019690601f19013688375f5b81811061076e5750505050505082519384938285019183865251809252840192915f5b82811061075757505050500390f35b835185528695509381019392810192600101610748565b6107856107808284899d9b9c9d611517565b61153b565b8a51630d9a666560e21b81526001600160a01b0391821686820152608080828981305afa9182915f93610906575b50506108255750806107c961078084868b611517565b165f5284885260ff8b5f2054165f146107ff575080670de0b6b3a76400006107f36001938b61154f565b525b0198979698610725565b925061078090610811928b9697611517565b9251633f41fc6560e11b8152921690820152fd5b905061083561078083858a611517565b505f815160070b13156108cb5787810184815116612710908181029181830414901517156108b95761086b908684511690611584565b9060025482116108935750509061088360019261164b565b61088d828b61154f565b526107f5565b5191518c51637d4e629360e01b8152928616838801528516828801526044820152606490fd5b87601188634e487b7160e01b5f52525ffd5b8a5162461bcd60e51b8152808601899052601681880152755072696365206d75737420626520706f73697469766560501b6044820152606490fd5b61091d929350803d106104ce576104bf81836111cb565b905f806107b3565b61122a565b50346101d9575f3660031901126101d9576020906002549051908152f35b346101d9575f3660031901126101d957610960611613565b5f8051602061178783398151915280546001600160a01b031981169091555f906001600160a01b03167f8be0079c531659141344cd1fd0a4f28419497f9722a3daafe3b4186f6b6457e08280a3005b50346101d95760203660031901126101d95781356109cb611613565b80151580610a42575b15610a11577f23d7699acdcc135096fefb30738c302da5792f78f39d038c1e7d74fd9c646cb29250600154908060015582519182526020820152a1005b815162461bcd60e51b8152602081850152600b60248201526a496e76616c69642061676560a81b6044820152606490fd5b50610e108111156109d4565b50346101d9575f3660031901126101d95761054590610a6b611209565b905191829182611138565b50346101d9575f3660031901126101d9577f00000000000000000000000000000000000000000000000000000000000000006001600160a01b03163003610ae057602090517f360894a13ba1a3210667c828492db98dca3e2076cc3735a920a3ca505d382bbc8152f35b5163703e46dd60e11b8152fd5b5090816003193601126101d957610b02611122565b602492833567ffffffffffffffff81116101d957366023820112156101d95780840135610b2e816111ed565b93610b3b845195866111cb565b81855260209182860193368983830101116101d957815f928a8693018737870101526001600160a01b037f00000000000000000000000000000000000000000000000000000000000000008116308114908115610d15575b50610d0557610ba0611613565b81169484516352d1902d60e01b8152838189818a5afa5f9181610cd6575b50610bd95750505050505191634c9c8ce360e01b8352820152fd5b9087878794938b7f360894a13ba1a3210667c828492db98dca3e2076cc3735a920a3ca505d382bbc91828103610cc15750853b15610cad575080546001600160a01b031916821790558451907fbc7cd75a20ee27fd9adebab32041f755214dbc6bffa90cc0225b39da2e5c2d3b5f80a2825115610c935750505f6102409581925190845af4913d15610c89573d610c7b610c72826111ed565b925192836111cb565b81525f81943d92013e611723565b5060609250611723565b9450945050505034610ca157005b63b398979f60e01b8152fd5b8651634c9c8ce360e01b8152808501849052fd5b8751632a87526960e21b815280860191909152fd5b9091508481813d8311610cfe575b610cee81836111cb565b810103126101d95751905f610bbe565b503d610ce4565b845163703e46dd60e11b81528790fd5b9050817f360894a13ba1a3210667c828492db98dca3e2076cc3735a920a3ca505d382bbc541614155f610b93565b5090346101d957816003193601126101d957610d5d611122565b6001600160a01b039060243582811691908290036101d9577ff0c57e16840df040f15088dc2f81fe391c3923bec73e23a9662efc9c229c6a009384549360ff85881c16159467ffffffffffffffff811680159081610f22575b6001149081610f18575b159081610f0f575b50610eff5767ffffffffffffffff198116600117875585610ee0575b50821615610ead578215610e725750610e0790610dff6116e2565b61023b6116e2565b610e0f6116e2565b6bffffffffffffffffffffffff60a01b5f5416175f55603c6001556064600255610e3557005b805468ff00000000000000001916905551600181527fc7f505b2f371ae2175ee4913f4499e1f2633a7b5936321eed1cdaeb6115181d290602090a1005b606490602087519162461bcd60e51b83528201526015602482015274125b9d985b1a5908141e5d1a0818dbdb9d1c9858dd605a1b6044820152fd5b606490602087519162461bcd60e51b8352820152600d60248201526c24b73b30b634b21037bbb732b960991b6044820152fd5b68ffffffffffffffffff1916680100000000000000011786555f610de4565b875163f92ee8a960e01b81528390fd5b9050155f610dc8565b303b159150610dc0565b879150610db6565b50346101d95760203660031901126101d957602090610f4f610f4a611122565b61139a565b9051908152f35b50346101d95760203660031901126101d957610f70611122565b91610f79611376565b50610f82611376565b506001600160a01b039283165f818152600360205283902054938415611065575f54600154855163052571af60e51b815285810197909752602487015260809186916044918391165afa93841561105b575f9461103a575b50835160070b905f82131561102157608084606087825192815160070b845267ffffffffffffffff60208301511660208501528082015160030b9084015201516060820152f35b6044935192634b5543d560e01b84528301526024820152fd5b61105491945060803d6080116104ce576104bf81836111cb565b925f610fda565b83513d5f823e3d90fd5b506024925191633f41fc6560e11b8352820152fd5b50346101d957806003193601126101d957611093611122565b91602435928315158094036101d9576110aa611613565b6001600160a01b03166110be81151561133a565b5f526020525f209060ff801983541691161790555f80f35b50346101d9575f3660031901126101d9576020906001549051908152f35b50346101d95760203660031901126101d957602090611119611114611122565b6112b4565b90519015158152f35b600435906001600160a01b03821682036101d957565b602080825282518183018190529093925f5b82811061116b57505060409293505f838284010152601f8019910116010190565b81810186015184820160400152850161114a565b6080810190811067ffffffffffffffff82111761119b57604052565b634e487b7160e01b5f52604160045260245ffd5b6040810190811067ffffffffffffffff82111761119b57604052565b90601f8019910116810190811067ffffffffffffffff82111761119b57604052565b67ffffffffffffffff811161119b57601f01601f191660200190565b60405190611216826111af565b60058252640312e302e360dc1b6020830152565b346101d9575f3660031901126101d9575f546040516001600160a01b039091168152602090f35b908160809103126101d957604051906112698261117f565b80518060070b81036101d9578252602081015167ffffffffffffffff811681036101d95760208301526040810151908160030b82036101d95760609160408401520151606082015290565b6001600160a01b039081165f90815260036020526040902054908115611334575f5460015460405163052571af60e51b81526004810194909452602484015260809183916044918391165afa9081611315575b50611310575f90565b600190565b61132d9060803d6080116104ce576104bf81836111cb565b505f611307565b50505f90565b1561134157565b60405162461bcd60e51b815260206004820152600d60248201526c24b73b30b634b2103a37b5b2b760991b6044820152606490fd5b604051906113838261117f565b5f6060838281528260208201528260408201520152565b604051630d9a666560e21b81526001600160a01b03909116600480830182905291608081602481305afa5f91816114de575b5061140a5750805f528160205260ff60405f2054166113fc57604051633f41fc6560e11b81529182015260249150fd5b5050670de0b6b3a764000090565b9190505f825160070b13156114a1576020820167ffffffffffffffff808251166127109081810291818304149015171561148e5761144c908286511690611584565b91600254831161146657505050506114639061164b565b90565b9381606495511690519060405194637d4e629360e01b86528501521660248301526044820152fd5b601184634e487b7160e01b5f525260245ffd5b60649060206040519162461bcd60e51b835282015260166024820152755072696365206d75737420626520706f73697469766560501b6044820152fd5b6114f891925060803d6080116104ce576104bf81836111cb565b905f6113cc565b67ffffffffffffffff811161119b5760051b60200190565b91908110156115275760051b0190565b634e487b7160e01b5f52603260045260245ffd5b356001600160a01b03811681036101d95790565b80518210156115275760209160051b010190565b9190820391821161157057565b634e487b7160e01b5f52601160045260245ffd5b811561158e570490565b634e487b7160e01b5f52601260045260245ffd5b6001600160a01b039081169081156115fb575f8051602061178783398151915280546001600160a01b031981168417909155167f8be0079c531659141344cd1fd0a4f28419497f9722a3daafe3b4186f6b6457e05f80a3565b604051631e4fbdf760e01b81525f6004820152602490fd5b5f80516020611787833981519152546001600160a01b0316330361163357565b60405163118cdaa760e01b8152336004820152602490fd5b604081015160030b9081601201918212600116611570575f82126116d057601e82136116be575167ffffffffffffffff1690604d811161157057600a0a90811561158e57815f190481116116ac578181029181830414901517156115705790565b60405163eb54e4d360e01b8152600490fd5b60405163190a65ed60e31b8152600490fd5b6040516373abd2a360e11b8152600490fd5b60ff7ff0c57e16840df040f15088dc2f81fe391c3923bec73e23a9662efc9c229c6a005460401c161561171157565b604051631afcd79f60e31b8152600490fd5b9061174a575080511561173857602081519101fd5b60405163d6bda27560e01b8152600490fd5b8151158061177d575b61175b575090565b604051639996b31560e01b81526001600160a01b039091166004820152602490fd5b50803b1561175356fe9016d09d72d40fdae2fd8ceac6b6234c7706214fd39c1cd1e609a0528c199300a264697066735822122078c8a020aa585584a743ba426bbcc5b7df57c3430cc8b8ae9d481118c038d37b64736f6c63430008170033","linkReferences":{}},"methodIdentifiers":{"UPGRADE_INTERFACE_VERSION()":"ad3cb1cc","_getPythPriceExternal(address)":"36699994","batchGetPrices(address[])":"8add9bee","getPrice(address)":"41976e09","getPythContract()":"6d1fdf6f","getVersion()":"0d8e6e2c","initialize(address,address)":"485cc955","isPriceFresh(address)":"0af1a39f","maxConfidenceRatio()":"7d13ae2b","maxPriceAge()":"1584410a","oracle()":"7dc0d1d0","owner()":"8da5cb5b","priceFeeds(address)":"9dcb511a","proxiableUUID()":"52d1902d","pythContract()":"8a32ada0","removePriceFeed(address)":"fceb0024","renounceOwnership()":"715018a6","setMaxConfidenceRatio(uint256)":"9ed9f5fb","setMaxPriceAge(uint256)":"56447ce8","setPriceFeed(address,bytes32)":"adcb085a","setStablecoin(address,bool)":"1ccbf908","stablecoins(address)":"fa847836","transferOwnership(address)":"f2fde38b","upgradeToAndCall(address,bytes)":"4f1ef286","version()":"54fd4d50"},"id":78}