{"abi":[{"type":"constructor","inputs":[],"stateMutability":"nonpayable"},{"type":"receive","stateMutability":"payable"},{"type":"function","name":"UPGRADE_INTERFACE_VERSION","inputs":[],"outputs":[{"name":"","type":"string","internalType":"string"}],"stateMutability":"view"},{"type":"function","name":"approvedDEXs","inputs":[{"name":"","type":"address","internalType":"address"}],"outputs":[{"name":"","type":"bool","internalType":"bool"}],"stateMutability":"view"},{"type":"function","name":"batchSetDEXApproval","inputs":[{"name":"dexs","type":"address[]","internalType":"address[]"},{"name":"approved","type":"bool","internalType":"bool"}],"outputs":[],"stateMutability":"nonpayable"},{"type":"function","name":"config","inputs":[],"outputs":[{"name":"","type":"address","internalType":"contract IRebalancerConfig"}],"stateMutability":"view"},{"type":"function","name":"delegationManager","inputs":[],"outputs":[{"name":"","type":"address","internalType":"contract IDelegationManager"}],"stateMutability":"view"},{"type":"function","name":"getPortfolioValue","inputs":[{"name":"userAccount","type":"address","internalType":"address"},{"name":"strategyId","type":"uint256","internalType":"uint256"}],"outputs":[{"name":"valueUSD","type":"uint256","internalType":"uint256"}],"stateMutability":"view"},{"type":"function","name":"getVersion","inputs":[],"outputs":[{"name":"","type":"string","internalType":"string"}],"stateMutability":"pure"},{"type":"function","name":"initialize","inputs":[{"name":"_owner","type":"address","internalType":"address"},{"name":"_delegationManager","type":"address","internalType":"address"},{"name":"_registry","type":"address","internalType":"address"},{"name":"_oracle","type":"address","internalType":"address"},{"name":"_uniswapHelper","type":"address","internalType":"address"},{"name":"_config","type":"address","internalType":"address"}],"outputs":[],"stateMutability":"nonpayable"},{"type":"function","name":"oracle","inputs":[],"outputs":[{"name":"","type":"address","internalType":"contract IPythOracle"}],"stateMutability":"view"},{"type":"function","name":"owner","inputs":[],"outputs":[{"name":"","type":"address","internalType":"address"}],"stateMutability":"view"},{"type":"function","name":"pause","inputs":[],"outputs":[],"stateMutability":"nonpayable"},{"type":"function","name":"paused","inputs":[],"outputs":[{"name":"","type":"bool","internalType":"bool"}],"stateMutability":"view"},{"type":"function","name":"proxiableUUID","inputs":[],"outputs":[{"name":"","type":"bytes32","internalType":"bytes32"}],"stateMutability":"view"},{"type":"function","name":"rebalance","inputs":[{"name":"userAccount","type":"address","internalType":"address"},{"name":"strategyId","type":"uint256","internalType":"uint256"},{"name":"tokensIn","type":"address[]","internalType":"address[]"},{"name":"swapTargets","type":"address[]","internalType":"address[]"},{"name":"swapCallDatas","type":"bytes[]","internalType":"bytes[]"},{"name":"minOutputAmounts","type":"uint256[]","internalType":"uint256[]"},{"name":"nativeValues","type":"uint256[]","internalType":"uint256[]"},{"name":"permissionContexts","type":"bytes[]","internalType":"bytes[]"},{"name":"modes","type":"bytes32[]","internalType":"ModeCode[]"}],"outputs":[],"stateMutability":"payable"},{"type":"function","name":"registry","inputs":[],"outputs":[{"name":"","type":"address","internalType":"contract StrategyRegistry"}],"stateMutability":"view"},{"type":"function","name":"renounceOwnership","inputs":[],"outputs":[],"stateMutability":"nonpayable"},{"type":"function","name":"setDEXApproval","inputs":[{"name":"dex","type":"address","internalType":"address"},{"name":"approved","type":"bool","internalType":"bool"}],"outputs":[],"stateMutability":"nonpayable"},{"type":"function","name":"setDelegationManager","inputs":[{"name":"_newDelegationManager","type":"address","internalType":"address"}],"outputs":[],"stateMutability":"nonpayable"},{"type":"function","name":"shouldRebalance","inputs":[{"name":"userAccount","type":"address","internalType":"address"},{"name":"strategyId","type":"uint256","internalType":"uint256"}],"outputs":[{"name":"isShouldRebalance","type":"bool","internalType":"bool"},{"name":"drift","type":"uint256","internalType":"uint256"}],"stateMutability":"view"},{"type":"function","name":"testDelegationApproval","inputs":[{"name":"userAccount","type":"address","internalType":"address"},{"name":"token","type":"address","internalType":"address"},{"name":"spender","type":"address","internalType":"address"},{"name":"permissionContext","type":"bytes","internalType":"bytes"},{"name":"mode","type":"bytes32","internalType":"ModeCode"}],"outputs":[{"name":"success","type":"bool","internalType":"bool"}],"stateMutability":"nonpayable"},{"type":"function","name":"testDelegationNoOp","inputs":[{"name":"userAccount","type":"address","internalType":"address"},{"name":"permissionContext","type":"bytes","internalType":"bytes"},{"name":"mode","type":"bytes32","internalType":"ModeCode"}],"outputs":[{"name":"success","type":"bool","internalType":"bool"}],"stateMutability":"nonpayable"},{"type":"function","name":"testDelegationSingleSwap","inputs":[{"name":"userAccount","type":"address","internalType":"address"},{"name":"tokenIn","type":"address","internalType":"address"},{"name":"swapTarget","type":"address","internalType":"address"},{"name":"swapCallData","type":"bytes","internalType":"bytes"},{"name":"nativeValue","type":"uint256","internalType":"uint256"},{"name":"permissionContext","type":"bytes","internalType":"bytes"},{"name":"mode","type":"bytes32","internalType":"ModeCode"}],"outputs":[{"name":"success","type":"bool","internalType":"bool"}],"stateMutability":"nonpayable"},{"type":"function","name":"testDelegationSwapOnly","inputs":[{"name":"userAccount","type":"address","internalType":"address"},{"name":"swapTarget","type":"address","internalType":"address"},{"name":"swapCallData","type":"bytes","internalType":"bytes"},{"name":"nativeValue","type":"uint256","internalType":"uint256"},{"name":"permissionContext","type":"bytes","internalType":"bytes"},{"name":"mode","type":"bytes32","internalType":"ModeCode"}],"outputs":[{"name":"success","type":"bool","internalType":"bool"}],"stateMutability":"nonpayable"},{"type":"function","name":"testDelegationTransfer","inputs":[{"name":"userAccount","type":"address","internalType":"address"},{"name":"token","type":"address","internalType":"address"},{"name":"recipient","type":"address","internalType":"address"},{"name":"amount","type":"uint256","internalType":"uint256"},{"name":"permissionContext","type":"bytes","internalType":"bytes"},{"name":"mode","type":"bytes32","internalType":"ModeCode"}],"outputs":[{"name":"success","type":"bool","internalType":"bool"}],"stateMutability":"nonpayable"},{"type":"function","name":"testStrategyOwnership","inputs":[{"name":"userAccount","type":"address","internalType":"address"},{"name":"strategyId","type":"uint256","internalType":"uint256"}],"outputs":[{"name":"isValid","type":"bool","internalType":"bool"},{"name":"strategyOwner","type":"address","internalType":"address"},{"name":"delegatorOwner","type":"address","internalType":"address"},{"name":"error","type":"string","internalType":"string"}],"stateMutability":"view"},{"type":"function","name":"transferOwnership","inputs":[{"name":"newOwner","type":"address","internalType":"address"}],"outputs":[],"stateMutability":"nonpayable"},{"type":"function","name":"uniswapHelper","inputs":[],"outputs":[{"name":"","type":"address","internalType":"contract IUniswapHelper"}],"stateMutability":"view"},{"type":"function","name":"unpause","inputs":[],"outputs":[],"stateMutability":"nonpayable"},{"type":"function","name":"upgradeToAndCall","inputs":[{"name":"newImplementation","type":"address","internalType":"address"},{"name":"data","type":"bytes","internalType":"bytes"}],"outputs":[],"stateMutability":"payable"},{"type":"event","name":"DEXApprovalUpdated","inputs":[{"name":"dex","type":"address","indexed":true,"internalType":"address"},{"name":"approved","type":"bool","indexed":false,"internalType":"bool"}],"anonymous":false},{"type":"event","name":"DebugAfterDelegationCall","inputs":[{"name":"driftBefore","type":"uint256","indexed":false,"internalType":"uint256"},{"name":"driftAfter","type":"uint256","indexed":false,"internalType":"uint256"},{"name":"valueBefore","type":"uint256","indexed":false,"internalType":"uint256"},{"name":"valueAfter","type":"uint256","indexed":false,"internalType":"uint256"}],"anonymous":false},{"type":"event","name":"DebugBeforeDelegationCall","inputs":[{"name":"permissionContextsLength","type":"uint256","indexed":false,"internalType":"uint256"},{"name":"modesLength","type":"uint256","indexed":false,"internalType":"uint256"},{"name":"executionLength","type":"uint256","indexed":false,"internalType":"uint256"}],"anonymous":false},{"type":"event","name":"DebugDeleGatorValidated","inputs":[{"name":"user","type":"address","indexed":true,"internalType":"address"},{"name":"delegatorOwner","type":"address","indexed":false,"internalType":"address"}],"anonymous":false},{"type":"event","name":"DebugDriftCalculated","inputs":[{"name":"drift","type":"uint256","indexed":false,"internalType":"uint256"},{"name":"maxDrift","type":"uint256","indexed":false,"internalType":"uint256"},{"name":"portfolioValue","type":"uint256","indexed":false,"internalType":"uint256"}],"anonymous":false},{"type":"event","name":"DebugRebalanceStarted","inputs":[{"name":"user","type":"address","indexed":true,"internalType":"address"},{"name":"strategyId","type":"uint256","indexed":true,"internalType":"uint256"},{"name":"sender","type":"address","indexed":false,"internalType":"address"}],"anonymous":false},{"type":"event","name":"DebugStrategyFetched","inputs":[{"name":"user","type":"address","indexed":true,"internalType":"address"},{"name":"strategyId","type":"uint256","indexed":true,"internalType":"uint256"},{"name":"isActive","type":"bool","indexed":false,"internalType":"bool"},{"name":"owner","type":"address","indexed":false,"internalType":"address"}],"anonymous":false},{"type":"event","name":"DebugSwapValidationPassed","inputs":[{"name":"swapCount","type":"uint256","indexed":false,"internalType":"uint256"}],"anonymous":false},{"type":"event","name":"DebugTestDelegationApproval","inputs":[{"name":"success","type":"bool","indexed":false,"internalType":"bool"},{"name":"message","type":"string","indexed":false,"internalType":"string"}],"anonymous":false},{"type":"event","name":"DebugTestDelegationNoOp","inputs":[{"name":"success","type":"bool","indexed":false,"internalType":"bool"},{"name":"message","type":"string","indexed":false,"internalType":"string"}],"anonymous":false},{"type":"event","name":"DebugTestDelegationSingleSwap","inputs":[{"name":"success","type":"bool","indexed":false,"internalType":"bool"},{"name":"message","type":"string","indexed":false,"internalType":"string"}],"anonymous":false},{"type":"event","name":"DebugTestDelegationSwapOnly","inputs":[{"name":"success","type":"bool","indexed":false,"internalType":"bool"},{"name":"message","type":"string","indexed":false,"internalType":"string"}],"anonymous":false},{"type":"event","name":"DebugTestDelegationTransfer","inputs":[{"name":"success","type":"bool","indexed":false,"internalType":"bool"},{"name":"message","type":"string","indexed":false,"internalType":"string"}],"anonymous":false},{"type":"event","name":"DebugTestStrategyOwnership","inputs":[{"name":"isValid","type":"bool","indexed":false,"internalType":"bool"},{"name":"strategyOwner","type":"address","indexed":false,"internalType":"address"},{"name":"delegatorOwner","type":"address","indexed":false,"internalType":"address"},{"name":"error","type":"string","indexed":false,"internalType":"string"}],"anonymous":false},{"type":"event","name":"EmergencyPaused","inputs":[{"name":"caller","type":"address","indexed":true,"internalType":"address"}],"anonymous":false},{"type":"event","name":"EmergencyUnpaused","inputs":[{"name":"caller","type":"address","indexed":true,"internalType":"address"}],"anonymous":false},{"type":"event","name":"Initialized","inputs":[{"name":"version","type":"uint64","indexed":false,"internalType":"uint64"}],"anonymous":false},{"type":"event","name":"OwnershipTransferred","inputs":[{"name":"previousOwner","type":"address","indexed":true,"internalType":"address"},{"name":"newOwner","type":"address","indexed":true,"internalType":"address"}],"anonymous":false},{"type":"event","name":"RebalanceExecuted","inputs":[{"name":"user","type":"address","indexed":true,"internalType":"address"},{"name":"strategyId","type":"uint256","indexed":true,"internalType":"uint256"},{"name":"timestamp","type":"uint256","indexed":false,"internalType":"uint256"},{"name":"drift","type":"uint256","indexed":false,"internalType":"uint256"},{"name":"gasReimbursed","type":"uint256","indexed":false,"internalType":"uint256"}],"anonymous":false},{"type":"event","name":"RebalanceFailed","inputs":[{"name":"user","type":"address","indexed":true,"internalType":"address"},{"name":"strategyId","type":"uint256","indexed":true,"internalType":"uint256"},{"name":"reason","type":"string","indexed":false,"internalType":"string"}],"anonymous":false},{"type":"event","name":"SwapExecuted","inputs":[{"name":"user","type":"address","indexed":true,"internalType":"address"},{"name":"tokenIn","type":"address","indexed":false,"internalType":"address"},{"name":"tokenOut","type":"address","indexed":false,"internalType":"address"},{"name":"amountIn","type":"uint256","indexed":false,"internalType":"uint256"},{"name":"amountOut","type":"uint256","indexed":false,"internalType":"uint256"}],"anonymous":false},{"type":"event","name":"Upgraded","inputs":[{"name":"implementation","type":"address","indexed":true,"internalType":"address"}],"anonymous":false},{"type":"error","name":"AddressEmptyCode","inputs":[{"name":"target","type":"address","internalType":"address"}]},{"type":"error","name":"BalanceValidationFailed","inputs":[]},{"type":"error","name":"ContractPaused","inputs":[]},{"type":"error","name":"DriftBelowThreshold","inputs":[]},{"type":"error","name":"ERC1967InvalidImplementation","inputs":[{"name":"implementation","type":"address","internalType":"address"}]},{"type":"error","name":"ERC1967NonPayable","inputs":[]},{"type":"error","name":"FailedCall","inputs":[]},{"type":"error","name":"InsufficientSlippageProtection","inputs":[]},{"type":"error","name":"InvalidDeleGatorOwner","inputs":[]},{"type":"error","name":"InvalidDelegation","inputs":[]},{"type":"error","name":"InvalidInitialization","inputs":[]},{"type":"error","name":"NotADeleGator","inputs":[]},{"type":"error","name":"NotInitializing","inputs":[]},{"type":"error","name":"OwnableInvalidOwner","inputs":[{"name":"owner","type":"address","internalType":"address"}]},{"type":"error","name":"OwnableUnauthorizedAccount","inputs":[{"name":"account","type":"address","internalType":"address"}]},{"type":"error","name":"RebalanceExecutionFailed","inputs":[]},{"type":"error","name":"ReentrancyGuardReentrantCall","inputs":[]},{"type":"error","name":"StrategyNotActive","inputs":[]},{"type":"error","name":"SwapsDidNotImproveAllocation","inputs":[]},{"type":"error","name":"TooSoonToRebalance","inputs":[]},{"type":"error","name":"UUPSUnauthorizedCallContext","inputs":[]},{"type":"error","name":"UUPSUnsupportedProxiableUUID","inputs":[{"name":"slot","type":"bytes32","internalType":"bytes32"}]},{"type":"error","name":"UnapprovedDEX","inputs":[{"name":"dex","type":"address","internalType":"address"}]}],"bytecode":{"object":"0x60a08060405234620000d157306080527ff0c57e16840df040f15088dc2f81fe391c3923bec73e23a9662efc9c229c6a009081549060ff8260401c16620000c257506001600160401b036002600160401b0319828216016200007c575b60405161378b9081620000d68239608051818181611a120152611acb0152f35b6001600160401b031990911681179091556040519081527fc7f505b2f371ae2175ee4913f4499e1f2633a7b5936321eed1cdaeb6115181d290602090a15f80806200005c565b63f92ee8a960e01b8152600490fd5b5f80fdfe61024080604052600436101561001d575b50361561001b575f80fd5b005b5f6080525f3560e01c9081630d8e6e2c14611eb25750806318069a9c14611e255780631a8d0de214611dd65780632f26c51214611cf15780633f4ba83a14611ca85780634125839814611c805780634f1ef28614611a7c57806352d1902d14611a005780635a7fbe53146119b95780635c975abb146119975780636bcff91a14611962578063715018a6146118fb57806379502c55146118d357806379620965146118965780637b1039991461186e5780637dc0d1d0146118465780638456cb59146117fa5780638da5cb5b146117c65780639760434a14611768578063a3a401971461170d578063ad3cb1cc146116c8578063b0a8b0f41461067a578063b8282a6b14610609578063cc2a9a5b146102de578063cf0058ca146102af578063d48b4a4a14610250578063ea4d3c9b14610225578063f0928866146101a15763f2fde38b1461016c575f610010565b3461019b57602036600319011261019b57610195610188611f4c565b6101906134d9565b613468565b60805180f35b60805180fd5b3461019b5760e036600319011261019b576101ba611f4c565b506101c3611f62565b6101cb611f78565b6001600160401b039060643582811161019b576101ec9036906004016120d2565b9060a43593841161019b5760209461020b61021b9536906004016120d2565b93909260c4359560843593613268565b6040519015158152f35b3461019b5760805136600319011261019b57608051546040516001600160a01b039091168152602090f35b3461019b57604036600319011261019b576102ab61027861026f611f4c565b602435906130ae565b9093916040519485941515855260018060a01b038092166020860152166040840152608060608401526080830190611f27565b0390f35b3461019b57604036600319011261019b5760206102d66102cd611f4c565b60243590612fc2565b604051908152f35b3461019b5760c036600319011261019b576102f7611f4c565b6102ff611f62565b90610308611f78565b6001600160a01b03929060649081358581169081900361060557608435908682168092036106055760a43593878516809503610605577ff0c57e16840df040f15088dc2f81fe391c3923bec73e23a9662efc9c229c6a009687549860ff8a60401c1615976001600160401b038b169a8b15806105fe575b6001809d1490816105f4575b1590816105eb575b506105d95767ffffffffffffffff1981168c178b55896105ba575b5081831615610586578116956103c5871515612141565b1691821561055157831561051e5784156104e35786156104b057506103f4906103ec613671565b610190613671565b6103fc613671565b610404613671565b61040c613671565b875f80516020613736833981519152556bffffffffffffffffffffffff60a01b93846080515416176080515583885416178755826002541617600255816003541617600355600454161760045560ff196006541660065561046d5760805180f35b805468ff0000000000000000191690556040519081527fc7f505b2f371ae2175ee4913f4499e1f2633a7b5936321eed1cdaeb6115181d290602090a18080610195565b60405162461bcd60e51b815260206004820152600e60248201526d496e76616c696420636f6e66696760901b6044820152fd5b60405162461bcd60e51b815260206004820152601660248201527524b73b30b634b2103ab734b9bbb0b8103432b63832b960511b6044820152fd5b60405162461bcd60e51b815260206004820152600e60248201526d496e76616c6964206f7261636c6560901b6044820152fd5b60405162461bcd60e51b815260206004820152601060248201526f496e76616c696420726567697374727960801b6044820152fd5b60405162461bcd60e51b815260206004820152600d60248201526c24b73b30b634b21037bbb732b960991b60448201528490fd5b68ffffffffffffffffff191668010000000000000001178a558b6103ae565b60405163f92ee8a960e01b8152600490fd5b9050158d610393565b303b15915061038b565b508961037f565b5f80fd5b3461019b5760c036600319011261019b57610622611f4c565b5061062b611f62565b6001600160401b0360443581811161019b5761064b9036906004016120d2565b9260843592831161019b5760209361066a61021b9436906004016120d2565b92909160a4359460643592612e60565b6101203660031901126106055761068f611f4c565b610200526044356001600160401b038111610605576106b2903690600401611f9d565b906064356001600160401b038111610605576106d2903690600401611f9d565b90916084356001600160401b038111610605576106f3903690600401611f9d565b610220529060a4356001600160401b03811161060557610717903690600401611f9d565b93909560c4356001600160401b03811161060557610739903690600401611f9d565b909260e4356001600160401b0381116106055761075a903690600401611f9d565b6101005261014052610104356001600160401b03811161060557610782903690600401611f9d565b99909760025f8051602061373683398151915254146116b65760025f805160206137368339815191525560ff600654166116a457604051338152602435907f4995b32af3f79e9d334e9435fe5db10660a6c59b65b7387a1703bbbd4d26af76602060018060a01b03610200511692a3600154604051634648f90360e01b8152610200516001600160a01b039081166004830152602480359083015290915f9183916044918391165afa801561156a575f6101c05261167f575b5060e06101c0510151151560018060a01b0360206101c0510151166040519182526020820152602435907fa739ad96a17128f1846449fa62111f8a9bd41640e29d6aa50cf8c6db0721c71c604060018060a01b03610200511692a36108a2610200516135af565b1561166d57610200516001600160a01b03906108bd906135fb565b1680158015611653575b61164157604051908152610200516001600160a01b0316907f4e0e0cb0783f3f8eafbbc133cad019a05b5b11598c8fc6d4013002f282e73fed90602090a260e06101c05101511561162f5761092b60c06101c051015160a06101c05101519061282b565b421061161d576101c051606001516002546040516101e081815263197df64960e21b90915251610200515f9391928392610974926001600160a01b03909216916004850161285d565b036101e05173__$dba9e2f2db071a4fcbbef338f63ec817de$__5af4801561156a575f906115ed575b6101c051608001516101a0908152604051610180818152633a33689d60e21b90915251905160209282916109d491600484016128ea565b036101805173__$dba9e2f2db071a4fcbbef338f63ec817de$__5af461016052610160511561156a575f60a052610160516115b1575b6101c05160600151600254604051610120818152630fe7ce2f60e01b909152516102005160209391928392610a4e926001600160a01b03909216916004850161285d565b036101205173__$dba9e2f2db071a4fcbbef338f63ec817de$__5af460e05260e0511561156a575f60c05260e051611575575b6004805460405163141d1ee760e31b81529160209183919082906001600160a01b03165afa90811561156a575f91611538575b508060a05110611526576040805160c05160a05182526020820193909352908101919091527f1813eddd19b013d2ed52b32afa5c0b840fe1e3f75c8c6ae1365133db8abe744e90606090a18285036114e15761022051830361149c5780830361144c578383036114075782156113ce575f5b83811061136c57505f5b818110611341575050507f99a4dc9dec0fe423a6fa34034c9854092e31e0b8fd4e6a9aa497063112f985f56020604051838152a1808060011b0460020361100b57610b8e97610b818260011b6121b1565b93604051998a9586612060565b8260011b8552601f19610ba38460011b6121b1565b015f5b8181106113115750505f805b8482106111b0578c878c610bcd610bc761221a565b92613511565b610bd68361224e565b52610be08261224e565b5081516040805161010051815260208101869052908101919091527fa070edb76b52cb8b0b2a3c025f14d015e57d3c3d24375b6a84c92a63cc076b0a90606090a15f546001600160a01b031691823b1561060557929060405193849263cef6d20960e01b845260648401606060048601526101005190526084840160846101005160051b8601019061014051905f5b6101005181106111345750505084810360031901602486015281815260200192905f5b81811061111b575050505f83610cb7829694829460031984830301604485015261227f565b03925af19081611108575b50610d5757610ccf61233f565b6308c379a014610ce7575b6040513d608051823e3d90fd5b610cef61235a565b80610cfa5750610cda565b60405190602082527fa654f8bd6017f14e8f499da1df964075586d7f0e1879b9d6ed8e24895f8e6ded6024359280610d4260018060a01b036102005116946020830190611f27565b0390a360405163cb3080e160e01b8152600490fd5b6101c0516060015160025460405163197df64960e21b8152608051610200519193909284928392610d95926001600160a01b0316916004850161285d565b038173__$dba9e2f2db071a4fcbbef338f63ec817de$__5af4908115610cda57610dea91602091608051916110e4575b506101c05160800151604051633a33689d60e21b8152938492839290600484016128ea565b038173__$dba9e2f2db071a4fcbbef338f63ec817de$__5af4908115610cda57608051916110b2575b5060a0518110156110a0576101c05160600151600254604051630fe7ce2f60e01b81526102005190939260209285928392610e5b926001600160a01b0316916004850161285d565b038173__$dba9e2f2db071a4fcbbef338f63ec817de$__5af4918215610cda576080519261106b575b50600480546040516356dfe18960e11b8152929160209184919082906001600160a01b03165afa918215610cda5760805192611037575b506127109182039082821161101f5760c05180830292811591840414171561100b5760807f329e166e6098ff14c1e6f65a932e9cf23f53702fe343dc7f10bb644b50be0374916040519060a0518252602082015260c0516040820152856060820152a10411610ff9576001546001600160a01b0316803b1561019b57604051631e80bcb760e31b815260808051610200516001600160a01b031660048401526024803590840152905191929091839160449183915af18015610cda57610fe3575b50604080516102005160a05142835260208301523492820192909252602435916001600160a01b0316907fb1f2cae6ec8018216f418980ea73bf6b652be3b4088a425dafefa21134d8fc8a90606090a360015f805160206137368339815191525560805180f35b610fec90611ffc565b60805161019b5780610f7c565b60405163d1622a4960e01b8152600490fd5b634e487b7160e01b5f52601160045260245ffd5b634e487b7160e01b6080515260116004526024608051fd5b9091506020813d602011611063575b8161105360209383612060565b8101031261060557519083610ebb565b3d9150611046565b9091506020813d602011611098575b8161108760209383612060565b810103126106055751906004610e84565b3d915061107a565b60405163a2dfe38760e01b8152600490fd5b90506020813d6020116110dc575b816110cd60209383612060565b81010312610605575181610e13565b3d91506110c0565b61110291503d80608051833e6110fa8183612060565b810190612838565b83610dc5565b61111190611ffc565b5f60805281610cc2565b8235855287955060209485019490920191600101610c92565b919394959650916083198982030183528335601e196101405136030181121561060557610140510190602082359201916001600160401b038111610605578036038313610605576020828280600196849695859652848401375f838284010152601f801991011601019501930191019088969594939291610c6f565b611248906111c76111c284868d61218d565b61219d565b6111d56111c285898961218d565b60405163095ea7b360e01b60208201526001600160a01b0390911660248201525f19604480830191909152815261120b8161202a565b6040519161121883611fcd565b6001600160a01b031682525f602083015260408201526112418261123b81612e52565b9a61226b565b528c61226b565b506112576111c282868661218d565b9061126381878a61218d565b3596610220518210156112fd578160051b8b0135601e198c360301811215610605578b01908135916001600160401b03831161060557602001938236038513610605576112d58f9a956112f494600197604051946112c086611fcd565b898060a01b031685526020850152369161209c565b60408201526112ed826112e781612e52565b9b61226b565b528d61226b565b50018a95610bb2565b634e487b7160e01b5f52603260045260245ffd5b602091929682826040519261132584611fcd565b5f84525f838501526060604085015201015201908a9591610ba6565b61134c81838561218d565b351561135a57600101610b30565b604051632641a21160e01b8152600490fd5b6001600160a01b036113826111c283878f61218d565b165f52600560205260ff60405f2054161561139f57600101610b26565b6113af6111c2602492868e61218d565b604051634927572760e11b81526001600160a01b039091166004820152fd5b60405162461bcd60e51b8152602060048201526011602482015270139bc81cddd85c1cc81c1c9bdd9a591959607a1b6044820152606490fd5b60405162461bcd60e51b815260206004820152601d60248201527f4e61746976652076616c756573206c656e677468206d69736d617463680000006044820152606490fd5b60405162461bcd60e51b815260206004820152602260248201527f4d696e206f757470757420616d6f756e7473206c656e677468206d69736d61746044820152610c6d60f31b6064820152608490fd5b60405162461bcd60e51b815260206004820152601b60248201527f5377617020617272617973206c656e677468206d69736d6174636800000000006044820152606490fd5b60405162461bcd60e51b815260206004820152601860248201527f546f6b656e73496e206c656e677468206d69736d6174636800000000000000006044820152606490fd5b60405163613e61a360e01b8152600490fd5b90506020813d602011611562575b8161155360209383612060565b8101031261060557518c610ab4565b3d9150611546565b6040513d5f823e3d90fd5b60203d6020116115aa575b8061159060209261012051612060565b61012051908101031261060557610120515160c052610a81565b503d611580565b60203d6020116115e6575b806115cc60209261018051612060565b61018051908101031261060557610180515160a052610a0a565b503d6115bc565b5060206116163d805f6101e0513e611608816101e051612060565b6101e051016101e051612838565b905061099d565b6040516312695dab60e11b8152600490fd5b604051631b92e95360e31b8152600490fd5b60405163970ed82960e01b8152600490fd5b506101c051602001516001600160a01b03168114156108c7565b6040516305a18a2360e31b8152600490fd5b61169a903d805f833e6116928183612060565b8101906126ba565b6101c0528b61083b565b60405163ab35696f60e01b8152600490fd5b604051633ee5aeb560e01b8152600490fd5b34610605575f366003190112610605576102ab6040516116e78161200f565b60058152640352e302e360dc1b6020820152604051918291602083526020830190611f27565b346106055760a036600319011261060557611726611f4c565b5061172f611f62565b611737611f78565b90606435906001600160401b0382116106055760209261175e61021b9336906004016120d2565b9160843593612cd6565b346106055760c036600319011261060557611781611f4c565b5061178a611f62565b611792611f78565b608435906001600160401b038211610605576020926117b861021b9336906004016120d2565b9160a4359360643591612afe565b34610605575f366003190112610605575f80516020613716833981519152546040516001600160a01b039091168152602090f35b34610605575f366003190112610605576118126134d9565b600160ff196006541617600655337fb8fad2fa0ed7a383e747c309ef2c4391d7b65592a48893e57ccc1fab707914565f80a2005b34610605575f366003190112610605576002546040516001600160a01b039091168152602090f35b34610605575f366003190112610605576001546040516001600160a01b039091168152602090f35b34610605576020366003190112610605576001600160a01b036118b7611f4c565b165f526005602052602060ff60405f2054166040519015158152f35b34610605575f366003190112610605576004546040516001600160a01b039091168152602090f35b34610605575f366003190112610605576119136134d9565b5f8051602061371683398151915280546001600160a01b031981169091555f906001600160a01b03167f8be0079c531659141344cd1fd0a4f28419497f9722a3daafe3b4186f6b6457e08280a3005b34610605576040366003190112610605576040611989611980611f4c565b6024359061290f565b825191151582526020820152f35b34610605575f36600319011261060557602060ff600654166040519015158152f35b34610605576060366003190112610605576119d2611f4c565b506024356001600160401b0381116106055761021b6119f760209236906004016120d2565b60443591612426565b34610605575f366003190112610605577f00000000000000000000000000000000000000000000000000000000000000006001600160a01b03163003611a6a5760206040517f360894a13ba1a3210667c828492db98dca3e2076cc3735a920a3ca505d382bbc8152f35b60405163703e46dd60e11b8152600490fd5b604036600319011261060557611a90611f4c565b6024356001600160401b038111610605573660238201121561060557611ac090369060248160040135910161209c565b906001600160a01b037f00000000000000000000000000000000000000000000000000000000000000008116308114908115611c52575b50611a6a57611b046134d9565b8116906040516352d1902d60e01b8152602081600481865afa5f9181611c1e575b50611b4357604051634c9c8ce360e01b815260048101849052602490fd5b7f360894a13ba1a3210667c828492db98dca3e2076cc3735a920a3ca505d382bbc92919290818103611c065750823b15611bed5780546001600160a01b03191682179055604051907fbc7cd75a20ee27fd9adebab32041f755214dbc6bffa90cc0225b39da2e5c2d3b5f80a2825115611bd457505f8083602061001b95519101845af4611bce6123c7565b916136b2565b91505034611bde57005b63b398979f60e01b8152600490fd5b604051634c9c8ce360e01b815260048101839052602490fd5b60249060405190632a87526960e21b82526004820152fd5b9091506020813d602011611c4a575b81611c3a60209383612060565b8101031261060557519085611b25565b3d9150611c2d565b9050817f360894a13ba1a3210667c828492db98dca3e2076cc3735a920a3ca505d382bbc5416141584611af7565b34610605575f366003190112610605576003546040516001600160a01b039091168152602090f35b34610605575f36600319011261060557611cc06134d9565b60ff1960065416600655337ff5cbf596165cc457b2cd92e8d8450827ee314968160a5696402d75766fc52caf5f80a2005b34610605576040366003190112610605576004356001600160401b03811161060557611d21903690600401611f9d565b611d29611f8e565b90611d326134d9565b811515905f5b818110611d4157005b6001906001600160a01b03611d6681611d5e6111c285888c61218d565b1615156120ff565b80611d756111c284878b61218d565b165f527f67d59f18b53c5ce845a017bccede25ccb434d7c290a7b2c9848342b01a00575460209160058352611db98860405f209060ff801983541691151516179055565b611dc76111c285888c61218d565b1691604051878152a201611d38565b3461060557602036600319011261060557611def611f4c565b611df76134d9565b6001600160a01b0316611e0b811515612141565b6bffffffffffffffffffffffff60a01b5f5416175f555f80f35b3461060557604036600319011261060557611e3e611f4c565b7f67d59f18b53c5ce845a017bccede25ccb434d7c290a7b2c9848342b01a0057546020611e69611f8e565b92611e726134d9565b6001600160a01b031692611e878415156120ff565b835f5260058252611ea78160405f209060ff801983541691151516179055565b6040519015158152a2005b34610605575f3660031901126106055780611ecf6102ab9261200f565b6016815275189719171816b232b13ab396b232b632b3b0ba34b7b760511b6020820152604051918291602083526020830190611f27565b5f5b838110611f175750505f910152565b8181015183820152602001611f08565b90602091611f4081518092818552858086019101611f06565b601f01601f1916010190565b600435906001600160a01b038216820361060557565b602435906001600160a01b038216820361060557565b604435906001600160a01b038216820361060557565b60243590811515820361060557565b9181601f84011215610605578235916001600160401b038311610605576020808501948460051b01011161060557565b606081019081106001600160401b03821117611fe857604052565b634e487b7160e01b5f52604160045260245ffd5b6001600160401b038111611fe857604052565b604081019081106001600160401b03821117611fe857604052565b608081019081106001600160401b03821117611fe857604052565b602081019081106001600160401b03821117611fe857604052565b90601f801991011681019081106001600160401b03821117611fe857604052565b6001600160401b038111611fe857601f01601f191660200190565b9291926120a882612081565b916120b66040519384612060565b829481845281830111610605578281602093845f960137010152565b9181601f84011215610605578235916001600160401b038311610605576020838186019501011161060557565b1561210657565b60405162461bcd60e51b8152602060048201526013602482015272496e76616c696420444558206164647265737360681b6044820152606490fd5b1561214857565b60405162461bcd60e51b815260206004820152601a60248201527f496e76616c69642064656c65676174696f6e206d616e616765720000000000006044820152606490fd5b91908110156112fd5760051b0190565b356001600160a01b03811681036106055790565b6001600160401b038111611fe85760051b60200190565b604090604051916121d88361200f565b6001835282915f5b602080821015612212578351602092916121f982611fcd565b5f82525f818301526060868301528288010152016121e0565b505091925050565b6040516122268161200f565b60018152805f5b6020808210156122485790606060209282850101520161222d565b50505090565b8051156112fd5760200190565b8051600110156112fd5760400190565b80518210156112fd5760209160051b010190565b90808251908181526020809101926020808460051b8301019501935f915b8483106122ad5750505050505090565b90919293949584806122cb600193601f198682030187528a51611f27565b980193019301919493929061229d565b9392906122f09060608652606086019061227f565b936020948181036020830152602080855192838152019401905f5b81811061232b57505050612328939450604081840391015261227f565b90565b82518652948701949187019160010161230b565b5f9060033d1161234b57565b905060045f803e5f5160e01c90565b5f60443d1061232857604051600319913d83016004833e81516001600160401b03918282113d6024840111176123b6578184019485519384116123be573d850101602084870101116123b6575061232892910160200190612060565b949350505050565b50949350505050565b3d156123f1573d906123d882612081565b916123e66040519384612060565b82523d5f602084013e565b606090565b604051906124038261200f565b60148252734c6f774c6576656c5265766572744e6f4461746160601b6020830152565b915f9260409261247384519261243b84612045565b5f845261244f61244961221a565b94613511565b6124588561224e565b526124628461224e565b5061246b61221a565b92369161209c565b61247c8261224e565b526124868161224e565b508351916124938361200f565b600183526020938436818601376124a98461224e565b525f546001600160a01b0316803b15610605576124df935f809488519687958694859363cef6d20960e01b8552600485016122db565b03925af19081612632575b506125d057907fdb7eb935c8f266a968325da48f6d1ca4795b3ada5b96dc973cd449a2f4f2524b9161251a61233f565b6308c379a0146125a5575b61252d6123c7565b8051156125945761258e9061257a602f855180936e2637bba632bb32b62932bb32b93a1d60891b8783015261256a81518092898686019101611f06565b810103600f810184520182612060565b838051948594888652850152830190611f27565b0390a190565b5061258e6125a06123f6565b61257a565b6125ad61235a565b806125b85750612525565b61258e90838051948594888652850152830190611f27565b7fdb7eb935c8f266a968325da48f6d1ca4795b3ada5b96dc973cd449a2f4f2524b9250601982806080945193600185528401528201527f4e6f4f702064656c65676174696f6e20737563636565646564000000000000006060820152a1600190565b61263d919450611ffc565b5f925f6124ea565b51906001600160a01b038216820361060557565b9080601f8301121561060557815190602091612674816121b1565b936126826040519586612060565b81855260208086019260051b82010192831161060557602001905b8282106126ab575050505090565b8151815290830190830161269d565b602080828403126106055781516001600160401b039283821161060557019061012093848382031261060557604093845195860186811082821117611fe85785528351865261270a838501612645565b83870152612719858501612645565b85870152606084015181811161060557840182601f8201121561060557805190612742826121b1565b9161274f88519384612060565b808352858084019160051b830101918583116106055786809101915b8383106128135750505050606087015260808401518181116106055782612793918601612659565b608087015260a084015160a087015260c084015160c087015260e084015180151581036106055760e08701526101009384810151918211610605570181601f82011215610605578051916127f26127e984612081565b96519687612060565b828652838383010111610605578261280d9386019101611f06565b82015290565b819061281e84612645565b815201910190869061276b565b9190820180921161100b57565b906020828203126106055781516001600160401b038111610605576123289201612659565b919392936060830160018060a01b0380931684526020906060602086015282518091526020608086019301915f5b8281106128a15750505050906040919416910152565b835186168552938101939281019260010161288b565b9081518082526020808093019301915f5b8281106128d6575050505090565b8351855293810193928101926001016128c8565b9091612901612328936040845260408401906128b7565b9160208184039101526128b7565b60015460408051634648f90360e01b81526001600160a01b0384811660048301526024820195909552909290915f908390604490829088165afa5f9281612ae2575b5061296057505050505f905f90565b60e082015115612ad85761297d60c083015160a08401519061282b565b4210612ad85773__$dba9e2f2db071a4fcbbef338f63ec817de$__915f60608201518660025416936129c28751958693849363197df64960e21b85526004850161285d565b0381865af45f9281612abc575b506129df5750505050505f905f90565b608001519083518093633a33689d60e21b82528180612a056020968796600484016128ea565b03915af4918215612ab2575f92612a82575b5080600491839583541685519384809263141d1ee760e31b82525afa938415612a7957505f93612a49575b5050101591565b9080929350813d8311612a72575b612a618183612060565b810103126106055751905f80612a42565b503d612a57565b513d5f823e3d90fd5b9080925081813d8311612aab575b612a9a8183612060565b810103126106055751906004612a17565b503d612a90565b83513d5f823e3d90fd5b612ad19193503d805f833e6110fa8183612060565b915f6129cf565b505050505f905f90565b612af79193503d805f833e6116928183612060565b915f612951565b92612b519592949193612bc5612b126121c8565b6040805163a9059cbb60e01b6020808301919091526001600160a01b03909916602482015260448101999099529798909390612b5f908a906064820190565b03601f1981018b528a612060565b87515f99612b6c82611fcd565b6001600160a01b0394851682525f8983015289820152612b8b8561224e565b52612b958461224e565b50612ba161244961221a565b612baa8561224e565b52612bb48461224e565b50612bbd61221a565b94369161209c565b612bce8461224e565b52612bd88361224e565b50855193612be58561200f565b60018552853681870137612bf88561224e565b525f5416803b1561060557612c26935f809488519687958694859363cef6d20960e01b8552600485016122db565b03925af19081612cc3575b50612c6157907f937475b212dedbdf62bf84df0b83e884f44ff462fdc74c346cf711c61d9348eb9161251a61233f565b7f937475b212dedbdf62bf84df0b83e884f44ff462fdc74c346cf711c61d9348eb9250601d82806080945193600185528401528201527f5472616e736665722064656c65676174696f6e207375636365656465640000006060820152a1600190565b612cce919450611ffc565b5f925f612c31565b91939092612ce26121c8565b604094612d4186519760209663095ea7b360e01b888b01525f9960018060a01b0380951660248201525f19604482015260448152612d1f8161202a565b848a5192612d2c84611fcd565b1682525f8983015289820152612b8b8561224e565b612d4a8461224e565b52612d548361224e565b50855193612d618561200f565b60018552853681870137612d748561224e565b525f5416803b1561060557612da2935f809488519687958694859363cef6d20960e01b8552600485016122db565b03925af19081612e3f575b50612ddd57907f24b22a8aeb8c12119908ebc10b7571cc5ee1e9710f855aca55b92cdf731a44629161251a61233f565b7f24b22a8aeb8c12119908ebc10b7571cc5ee1e9710f855aca55b92cdf731a44629250601d82806080945193600185528401528201527f417070726f76616c2064656c65676174696f6e207375636365656465640000006060820152a1600190565b612e4a919450611ffc565b5f925f612dad565b5f19811461100b5760010190565b95929390949195612eb1612e726121c8565b925f98612ea46040998a5192612e8784611fcd565b6001600160a01b03968716845260208085019b909b52369161209c565b89820152612b8b8561224e565b612eba8461224e565b52612ec48361224e565b50855193612ed18561200f565b60018552853681870137612ee48561224e565b525f5416803b1561060557612f12935f809488519687958694859363cef6d20960e01b8552600485016122db565b03925af19081612faf575b50612f4d57907f05d0a2a0fee036082a49263f2061afdc4fc0a018b897ebc52ddf9b880a750dba9161251a61233f565b7f05d0a2a0fee036082a49263f2061afdc4fc0a018b897ebc52ddf9b880a750dba9250601e82806080945193600185528401528201527f537761702d6f6e6c792064656c65676174696f6e2073756363656564656400006060820152a1600190565b612fba919450611ffc565b5f925f612f1d565b600154604051634648f90360e01b81526001600160a01b03838116600483015260248201949094529192905f908390604490829085165afa5f9281613092575b5061300e575050505f90565b606060209201519060025416926130396040519485938493630fe7ce2f60e01b85526004850161285d565b038173__$dba9e2f2db071a4fcbbef338f63ec817de$__5af490811561156a575f91613063575090565b90506020813d60201161308a575b8161307e60209383612060565b81010312610605575190565b3d9150613071565b6130a79193503d805f833e6116928183612060565b915f613002565b906130b8826135af565b15613237576130c6826135fb565b916001600160a01b0390818416156131ff57600154604051634648f90360e01b81526001600160a01b039290921660048301526024820193909352915f908390604490829085165afa5f92816131e3575b5061314f5750505f915f919060405161312f8161200f565b601081526f14dd1c985d1959de539bdd119bdd5b9960821b602082015290565b60e0816020849694015116940151156131b1578083169084160361318457600192919060405161317e81612045565b5f815290565b5f9291906040516131948161200f565b600d81526c09eeedccae49ad2e6dac2e8c6d609b1b602082015290565b505f9291906040516131c28161200f565b601181527053747261746567794e6f7441637469766560781b602082015290565b6131f89193503d805f833e6116928183612060565b915f613117565b5050505f915f91906040516132138161200f565b601481527344656c654761746f724f776e657249735a65726f60601b602082015290565b50505f905f905f9060405161324b8161200f565b600d81526c2737ba20a232b632a3b0ba37b960991b602082015290565b969395926040958680519461327c86611fcd565b600286525f5b8281106134395750613312906133299483519b60209d8e9d8e63095ea7b360e01b908201525f809f60018060a01b0380809d16998a602486015283196044860152604485526132d08561202a565b51946132db86611fcd565b1684528301528d8201526132ee8a61224e565b526132f88961224e565b508b519461330586611fcd565b85528d850152369161209c565b8882015261331f8561225b565b52612b958461225b565b6133328461224e565b5261333c8361224e565b508451936133498561200f565b6001855287368187013761335c8561224e565b525f5416803b156106055761338a935f809487519687958694859363cef6d20960e01b8552600485016122db565b03925af19081613426575b506133c5577f65e8e6c63e92ced5583b7e317b1246482a3558a6199c1c97ca43305b2bfeda32919261251a61233f565b608091507f65e8e6c63e92ced5583b7e317b1246482a3558a6199c1c97ca43305b2bfeda32928151916001835280828401528201527f53696e676c6520737761702064656c65676174696f6e207375636365656465646060820152a1600190565b613431919350611ffc565b5f915f613395565b6020919394925161344981611fcd565b5f8152825f8183015260608c8301528289010152019188919392613282565b6001600160a01b039081169081156134c1575f8051602061371683398151915280546001600160a01b031981168417909155167f8be0079c531659141344cd1fd0a4f28419497f9722a3daafe3b4186f6b6457e05f80a3565b604051631e4fbdf760e01b81525f6004820152602490fd5b5f80516020613716833981519152546001600160a01b031633036134f957565b60405163118cdaa760e01b8152336004820152602490fd5b604080518092602060408301908080850152825180925260608085018260608560051b8801019501965f925b85841061355d57505050505050612328925003601f198101835282612060565b9193600191939597508061359b8198605f198d820301885285878d51878060a01b038151168452858101518685015201519181898201520190611f27565b99019401940191889694919795939761353d565b803b156135f6575f80916040516020810190638da5cb5b60e01b8252600481526135d88161200f565b51915afa6135e46123c7565b816135ed575090565b60209150511490565b505f90565b803b156135f6575f80916040516020810190638da5cb5b60e01b8252600481526136248161200f565b51915afa6136306123c7565b9080613666575b61364057505f90565b60208180518101031261060557602001516001600160a01b038116908190036106055790565b506020815114613637565b60ff7ff0c57e16840df040f15088dc2f81fe391c3923bec73e23a9662efc9c229c6a005460401c16156136a057565b604051631afcd79f60e31b8152600490fd5b906136d957508051156136c757602081519101fd5b60405163d6bda27560e01b8152600490fd5b8151158061370c575b6136ea575090565b604051639996b31560e01b81526001600160a01b039091166004820152602490fd5b50803b156136e256fe9016d09d72d40fdae2fd8ceac6b6234c7706214fd39c1cd1e609a0528c1993009b779b17422d0df92223018b32b4d1fa46e071723d6817e2486d003becc55f00a264697066735822122043b2054e789112919cadff767d4df39399fbe9b177127eb5c710905df029f69164736f6c63430008170033","linkReferences":{"src/libraries/StrategyLibrary.sol":{"StrategyLibrary":[{"start":2641,"length":20},{"start":2737,"length":20},{"start":2859,"length":20},{"start":3695,"length":20},{"start":3780,"length":20},{"start":3893,"length":20},{"start":10843,"length":20},{"start":12563,"length":20}]}}},"methodIdentifiers":{"UPGRADE_INTERFACE_VERSION()":"ad3cb1cc","approvedDEXs(address)":"79620965","batchSetDEXApproval(address[],bool)":"2f26c512","config()":"79502c55","delegationManager()":"ea4d3c9b","getPortfolioValue(address,uint256)":"cf0058ca","getVersion()":"0d8e6e2c","initialize(address,address,address,address,address,address)":"cc2a9a5b","oracle()":"7dc0d1d0","owner()":"8da5cb5b","pause()":"8456cb59","paused()":"5c975abb","proxiableUUID()":"52d1902d","rebalance(address,uint256,address[],address[],bytes[],uint256[],uint256[],bytes[],bytes32[])":"b0a8b0f4","registry()":"7b103999","renounceOwnership()":"715018a6","setDEXApproval(address,bool)":"18069a9c","setDelegationManager(address)":"1a8d0de2","shouldRebalance(address,uint256)":"6bcff91a","testDelegationApproval(address,address,address,bytes,bytes32)":"a3a40197","testDelegationNoOp(address,bytes,bytes32)":"5a7fbe53","testDelegationSingleSwap(address,address,address,bytes,uint256,bytes,bytes32)":"f0928866","testDelegationSwapOnly(address,address,bytes,uint256,bytes,bytes32)":"b8282a6b","testDelegationTransfer(address,address,address,uint256,bytes,bytes32)":"9760434a","testStrategyOwnership(address,uint256)":"d48b4a4a","transferOwnership(address)":"f2fde38b","uniswapHelper()":"41258398","unpause()":"3f4ba83a","upgradeToAndCall(address,bytes)":"4f1ef286"},"id":79}