{"abi":[{"type":"constructor","inputs":[],"stateMutability":"nonpayable"},{"type":"function","name":"UPGRADE_INTERFACE_VERSION","inputs":[],"outputs":[{"name":"","type":"string","internalType":"string"}],"stateMutability":"view"},{"type":"function","name":"createStrategy","inputs":[{"name":"delegator","type":"address","internalType":"address"},{"name":"strategyId","type":"uint256","internalType":"uint256"},{"name":"tokens","type":"address[]","internalType":"address[]"},{"name":"weights","type":"uint256[]","internalType":"uint256[]"},{"name":"rebalanceInterval","type":"uint256","internalType":"uint256"},{"name":"name","type":"string","internalType":"string"}],"outputs":[],"stateMutability":"nonpayable"},{"type":"function","name":"deleteStrategy","inputs":[{"name":"delegator","type":"address","internalType":"address"},{"name":"strategyId","type":"uint256","internalType":"uint256"}],"outputs":[],"stateMutability":"nonpayable"},{"type":"function","name":"getAllUserStrategies","inputs":[{"name":"user","type":"address","internalType":"address"}],"outputs":[{"name":"","type":"tuple[]","internalType":"struct StrategyLibrary.Strategy[]","components":[{"name":"id","type":"uint256","internalType":"uint256"},{"name":"owner","type":"address","internalType":"address"},{"name":"delegator","type":"address","internalType":"address"},{"name":"tokens","type":"address[]","internalType":"address[]"},{"name":"weights","type":"uint256[]","internalType":"uint256[]"},{"name":"rebalanceInterval","type":"uint256","internalType":"uint256"},{"name":"lastRebalanceTime","type":"uint256","internalType":"uint256"},{"name":"isActive","type":"bool","internalType":"bool"},{"name":"name","type":"string","internalType":"string"}]}],"stateMutability":"view"},{"type":"function","name":"getStrategy","inputs":[{"name":"user","type":"address","internalType":"address"},{"name":"strategyId","type":"uint256","internalType":"uint256"}],"outputs":[{"name":"strategy","type":"tuple","internalType":"struct StrategyLibrary.Strategy","components":[{"name":"id","type":"uint256","internalType":"uint256"},{"name":"owner","type":"address","internalType":"address"},{"name":"delegator","type":"address","internalType":"address"},{"name":"tokens","type":"address[]","internalType":"address[]"},{"name":"weights","type":"uint256[]","internalType":"uint256[]"},{"name":"rebalanceInterval","type":"uint256","internalType":"uint256"},{"name":"lastRebalanceTime","type":"uint256","internalType":"uint256"},{"name":"isActive","type":"bool","internalType":"bool"},{"name":"name","type":"string","internalType":"string"}]}],"stateMutability":"view"},{"type":"function","name":"getUserStrategyCount","inputs":[{"name":"user","type":"address","internalType":"address"}],"outputs":[{"name":"count","type":"uint256","internalType":"uint256"}],"stateMutability":"view"},{"type":"function","name":"getUserStrategyIds","inputs":[{"name":"user","type":"address","internalType":"address"}],"outputs":[{"name":"","type":"uint256[]","internalType":"uint256[]"}],"stateMutability":"view"},{"type":"function","name":"getVersion","inputs":[],"outputs":[{"name":"","type":"string","internalType":"string"}],"stateMutability":"pure"},{"type":"function","name":"initialize","inputs":[{"name":"_owner","type":"address","internalType":"address"}],"outputs":[],"stateMutability":"nonpayable"},{"type":"function","name":"owner","inputs":[],"outputs":[{"name":"","type":"address","internalType":"address"}],"stateMutability":"view"},{"type":"function","name":"pauseStrategy","inputs":[{"name":"delegator","type":"address","internalType":"address"},{"name":"strategyId","type":"uint256","internalType":"uint256"}],"outputs":[],"stateMutability":"nonpayable"},{"type":"function","name":"proxiableUUID","inputs":[],"outputs":[{"name":"","type":"bytes32","internalType":"bytes32"}],"stateMutability":"view"},{"type":"function","name":"rebalanceExecutor","inputs":[],"outputs":[{"name":"","type":"address","internalType":"address"}],"stateMutability":"view"},{"type":"function","name":"renounceOwnership","inputs":[],"outputs":[],"stateMutability":"nonpayable"},{"type":"function","name":"resumeStrategy","inputs":[{"name":"delegator","type":"address","internalType":"address"},{"name":"strategyId","type":"uint256","internalType":"uint256"}],"outputs":[],"stateMutability":"nonpayable"},{"type":"function","name":"setRebalanceExecutor","inputs":[{"name":"_executor","type":"address","internalType":"address"}],"outputs":[],"stateMutability":"nonpayable"},{"type":"function","name":"strategies","inputs":[{"name":"","type":"address","internalType":"address"},{"name":"","type":"uint256","internalType":"uint256"}],"outputs":[{"name":"id","type":"uint256","internalType":"uint256"},{"name":"owner","type":"address","internalType":"address"},{"name":"delegator","type":"address","internalType":"address"},{"name":"rebalanceInterval","type":"uint256","internalType":"uint256"},{"name":"lastRebalanceTime","type":"uint256","internalType":"uint256"},{"name":"isActive","type":"bool","internalType":"bool"},{"name":"name","type":"string","internalType":"string"}],"stateMutability":"view"},{"type":"function","name":"transferOwnership","inputs":[{"name":"newOwner","type":"address","internalType":"address"}],"outputs":[],"stateMutability":"nonpayable"},{"type":"function","name":"updateLastRebalanceTime","inputs":[{"name":"user","type":"address","internalType":"address"},{"name":"strategyId","type":"uint256","internalType":"uint256"}],"outputs":[],"stateMutability":"nonpayable"},{"type":"function","name":"updateStrategy","inputs":[{"name":"delegator","type":"address","internalType":"address"},{"name":"strategyId","type":"uint256","internalType":"uint256"},{"name":"tokens","type":"address[]","internalType":"address[]"},{"name":"weights","type":"uint256[]","internalType":"uint256[]"}],"outputs":[],"stateMutability":"nonpayable"},{"type":"function","name":"upgradeToAndCall","inputs":[{"name":"newImplementation","type":"address","internalType":"address"},{"name":"data","type":"bytes","internalType":"bytes"}],"outputs":[],"stateMutability":"payable"},{"type":"function","name":"userStrategyCount","inputs":[{"name":"","type":"address","internalType":"address"}],"outputs":[{"name":"","type":"uint256","internalType":"uint256"}],"stateMutability":"view"},{"type":"function","name":"userStrategyIds","inputs":[{"name":"","type":"address","internalType":"address"},{"name":"","type":"uint256","internalType":"uint256"}],"outputs":[{"name":"","type":"uint256","internalType":"uint256"}],"stateMutability":"view"},{"type":"event","name":"Initialized","inputs":[{"name":"version","type":"uint64","indexed":false,"internalType":"uint64"}],"anonymous":false},{"type":"event","name":"LastRebalanceTimeUpdated","inputs":[{"name":"delegator","type":"address","indexed":true,"internalType":"address"},{"name":"strategyId","type":"uint256","indexed":true,"internalType":"uint256"},{"name":"timestamp","type":"uint256","indexed":false,"internalType":"uint256"}],"anonymous":false},{"type":"event","name":"OwnershipTransferred","inputs":[{"name":"previousOwner","type":"address","indexed":true,"internalType":"address"},{"name":"newOwner","type":"address","indexed":true,"internalType":"address"}],"anonymous":false},{"type":"event","name":"RebalanceExecutorUpdated","inputs":[{"name":"oldExecutor","type":"address","indexed":true,"internalType":"address"},{"name":"newExecutor","type":"address","indexed":true,"internalType":"address"}],"anonymous":false},{"type":"event","name":"StrategyCreated","inputs":[{"name":"delegator","type":"address","indexed":true,"internalType":"address"},{"name":"owner","type":"address","indexed":true,"internalType":"address"},{"name":"strategyId","type":"uint256","indexed":true,"internalType":"uint256"},{"name":"name","type":"string","indexed":false,"internalType":"string"},{"name":"tokens","type":"address[]","indexed":false,"internalType":"address[]"},{"name":"weights","type":"uint256[]","indexed":false,"internalType":"uint256[]"}],"anonymous":false},{"type":"event","name":"StrategyDeleted","inputs":[{"name":"delegator","type":"address","indexed":true,"internalType":"address"},{"name":"strategyId","type":"uint256","indexed":true,"internalType":"uint256"}],"anonymous":false},{"type":"event","name":"StrategyPaused","inputs":[{"name":"delegator","type":"address","indexed":true,"internalType":"address"},{"name":"strategyId","type":"uint256","indexed":true,"internalType":"uint256"}],"anonymous":false},{"type":"event","name":"StrategyResumed","inputs":[{"name":"delegator","type":"address","indexed":true,"internalType":"address"},{"name":"strategyId","type":"uint256","indexed":true,"internalType":"uint256"}],"anonymous":false},{"type":"event","name":"StrategyUpdated","inputs":[{"name":"delegator","type":"address","indexed":true,"internalType":"address"},{"name":"strategyId","type":"uint256","indexed":true,"internalType":"uint256"},{"name":"tokens","type":"address[]","indexed":false,"internalType":"address[]"},{"name":"weights","type":"uint256[]","indexed":false,"internalType":"uint256[]"}],"anonymous":false},{"type":"event","name":"Upgraded","inputs":[{"name":"implementation","type":"address","indexed":true,"internalType":"address"}],"anonymous":false},{"type":"error","name":"AddressEmptyCode","inputs":[{"name":"target","type":"address","internalType":"address"}]},{"type":"error","name":"ERC1967InvalidImplementation","inputs":[{"name":"implementation","type":"address","internalType":"address"}]},{"type":"error","name":"ERC1967NonPayable","inputs":[]},{"type":"error","name":"FailedCall","inputs":[]},{"type":"error","name":"InvalidInitialization","inputs":[]},{"type":"error","name":"InvalidStrategyId","inputs":[]},{"type":"error","name":"NotADeleGator","inputs":[]},{"type":"error","name":"NotAuthorized","inputs":[]},{"type":"error","name":"NotInitializing","inputs":[]},{"type":"error","name":"OnlyRebalanceExecutor","inputs":[]},{"type":"error","name":"OnlyStrategyOwner","inputs":[]},{"type":"error","name":"OwnableInvalidOwner","inputs":[{"name":"owner","type":"address","internalType":"address"}]},{"type":"error","name":"OwnableUnauthorizedAccount","inputs":[{"name":"account","type":"address","internalType":"address"}]},{"type":"error","name":"StrategyAlreadyExists","inputs":[]},{"type":"error","name":"StrategyNotFound","inputs":[]},{"type":"error","name":"UUPSUnauthorizedCallContext","inputs":[]},{"type":"error","name":"UUPSUnsupportedProxiableUUID","inputs":[{"name":"slot","type":"bytes32","internalType":"bytes32"}]}],"bytecode":{"object":"0x60a080604052346100cc57306080527ff0c57e16840df040f15088dc2f81fe391c3923bec73e23a9662efc9c229c6a009081549060ff8260401c166100bd57506001600160401b036002600160401b031982821601610078575b6040516121e290816100d182396080518181816113df01526114980152f35b6001600160401b031990911681179091556040519081527fc7f505b2f371ae2175ee4913f4499e1f2633a7b5936321eed1cdaeb6115181d290602090a15f8080610059565b63f92ee8a960e01b8152600490fd5b5f80fdfe6080806040526004361015610012575f80fd5b5f905f3560e01c9081630d8e6e2c146119d05750806329caf0bb146117655780634648f9031461164f5780634f1ef2861461144957806352d1902d146113cd5780636c451e4f14611376578063715018a61461130f5780637323d1dc1461129d578063751c4c8314610b73578063787cc3e8146109645780638da5cb5b1461092f5780639048086f146108705780639f8f3244146107ce578063a8754aa214610712578063ad3cb1cc146106c8578063b79f8a8b14610471578063c4d66de81461033a578063ce6e13ff1461028c578063d77ab72d14610263578063d88490d01461023b578063f2fde38b1461020e578063f405e5b8146101565763fe25333a1461011b575f80fd5b34610153576020366003190112610153576020906040906001600160a01b03610142611a4d565b168152600283522054604051908152f35b80fd5b503461015357604036600319011261015357610170611a4d565b600354602435916001600160a01b0391821633036101fc5716808352826020526040832082845260205260408320805415806101f0575b6101de576006429101557f07264369268ed39a83671d08cb89484ddb5660037f2e7ec2ae6917e44427fa426020604051428152a380f35b604051632df15a4160e11b8152600490fd5b506003810154156101a7565b6040516303c4eecf60e21b8152600490fd5b50346101535760203660031901126101535761023861022b611a4d565b610233611fbf565b611f4e565b80f35b5034610153576020366003190112610153576020906040906001600160a01b03610142611a4d565b50346101535780600319360112610153576003546040516001600160a01b039091168152602090f35b5034610153576020366003190112610153576102a6611a4d565b6102ae611fbf565b6001600160a01b0390811690811561030257600354826bffffffffffffffffffffffff60a01b821617600355167f24bfaf52118d10c0defabb4f43e353b9c8aa2b4eb66946b56f272a5745dfb58c8380a380f35b60405162461bcd60e51b815260206004820152601060248201526f24b73b30b634b21032bc32b1baba37b960811b6044820152606490fd5b503461015357602036600319011261015357610354611a4d565b7ff0c57e16840df040f15088dc2f81fe391c3923bec73e23a9662efc9c229c6a0090815460ff8160401c1615916001600160401b03821680159081610469575b600114908161045f575b159081610456575b506104445767ffffffffffffffff19821660011784556103d79183610425575b506103cf6120e8565b6102336120e8565b6103df6120e8565b6103e7575080f35b68ff00000000000000001981541690557fc7f505b2f371ae2175ee4913f4499e1f2633a7b5936321eed1cdaeb6115181d2602060405160018152a180f35b68ffffffffffffffffff1916680100000000000000011784555f6103c6565b60405163f92ee8a960e01b8152600490fd5b9050155f6103a6565b303b15915061039e565b849150610394565b50346101535760803660031901126101535761048b611a4d565b602435906001600160401b036044358181116106c4576104af903690600401611c5a565b90916064358181116106c0576104c9903690600401611c5a565b9060018060a01b038096169586895260209389855260408a20898b52855260408a20805415806106b4575b6101de57600192806001830154163314158061069a575b610688578b73__$dba9e2f2db071a4fcbbef338f63ec817de$__803b1561068457818789928c8e610552604051968795869485946323a7592960e11b865260048601611e82565b03915af4801561067957610661575b5050600382019083891161064d576105798983611d9b565b89918d52878d208d925b8a841061062d5750505050600401908411610619576105a28482611d9b565b8952838920828a5b858110610608575050505091610602917f6db76c8a3889c0731b3752f6ea9abcd361cf982366fdde8d31bc729190a799369594936105f5604051968796604088526040880191611ef7565b9285840390860152611e5e565b0390a380f35b8135838201559086019083016105aa565b634e487b7160e01b8a52604160045260248afd5b8035938385168503610649578a88920194818401550192610583565b8f80fd5b634e487b7160e01b8d52604160045260248dfd5b61066a90611b91565b610675578b5f610561565b8b80fd5b6040513d84823e3d90fd5b5080fd5b60405163ea8e4eb560e01b8152600490fd5b50805f8051602061218d833981519152541633141561050b565b506003810154156104f4565b8680fd5b8480fd5b503461015357806003193601126101535761070e6040516106e881611ba4565b60058152640352e302e360dc1b6020820152604051918291602083526020830190611a0f565b0390f35b50346101535760403660031901126101535761072c611a4d565b6001600160a01b03908116808352602083815260408085206024358087529252842080549193909115806107c2575b6101de578060018301541633141590816107a7575b5061068857600701805460ff191690557f6fe898767072debe4012739f5364c570c493a82c0c58270b3724b1a1700708d38380a380f35b90505f8051602061218d83398151915254163314155f610770565b5060038201541561075b565b50346101535760403660031901126101535760406107ea611a4d565b9160018060a01b0380931681528060205281812060243582526020522061070e815491836001820154169360028201541690600581015460068201549061083b600860ff6007860154169401611cc2565b9360405197889788526020880152604087015260608601526080850152151560a084015260e060c084015260e0830190611a0f565b50346101535760403660031901126101535761088a611a4d565b6001600160a01b0390811680835260208381526040808520602435808752925284208054919390911580610923575b6101de57806001830154163314159081610908575b5061068857600701805460ff191660011790557f5bdc7734939384f886d0744037b20922c8b610626171a851c34e94001faf0ccb8380a380f35b90505f8051602061218d83398151915254163314155f6108ce565b506003820154156108b9565b50346101535780600319360112610153575f8051602061218d833981519152546040516001600160a01b039091168152602090f35b503461015357602080600319360112610684576001600160a01b0380610988611a4d565b169283815260019182845261099f60408320611e10565b8051956109c46109ae88611ee0565b976109bc604051998a611bbf565b808952611ee0565b601f1901845b818110610b575750508484905b610a3d575b5050505060405192808401908085528551809252604085018160408460051b880101970193905b838210610a105786880387f35b90919293948380610a2c839a603f198b82030186528951611a77565b999701959493919091019101610a03565b908291869896949351811015610b4e57849082875286895260408720610a638286611f3a565b51885289526040872060405190610a7982611b61565b805482528684820154168b8301528660028201541660408301526003810160405190818d82549182815201918c528d808d20918d915b818310610b3457505050509181610acd600893610b0c950382611bbf565b6060850152610ade60048201611e10565b6080850152600581015460a0850152600681015460c085015260ff600782015416151560e085015201611cc2565b610100820152610b1c828a611f3a565b52610b278189611f3a565b50019091929395976109d7565b83548d1685528d999401939283019291909101908f610aaf565b509694966109dc565b8790610b64999799611dcd565b82828a010152019795976109ca565b50346111e45760c03660031901126111e457610b8d611a4d565b6044356001600160401b0381116111e457610bac903690600401611c5a565b906064356001600160401b0381116111e457610bcc903690600401611c5a565b60a492919235916001600160401b0383116111e457366023840112156111e4576001600160401b038360040135116111e4573660248460040135850101116111e457610c1786612026565b1561128b576001600160a01b03610c2d87612072565b16948515611246578533141580611225575b6106885760018060a01b0387165f525f60205260405f206024355f5260205260405f2054158015906111fa575b6111e85773__$dba9e2f2db071a4fcbbef338f63ec817de$__803b156111e4575f60405180926323a7592960e11b82528180610cae898c898b60048601611e82565b03915af480156111d9576111c6575b506084351561118e5783600401351561115a57604051610cdc81611b61565b6024358152602081018790526001600160a01b0388166040820152610d0082611ee0565b610d0d6040519182611bbf565b82815260208101368460051b86011161113e5784905b8460051b860182106111425750506060820152610d3f84611ee0565b610d4c6040519182611bbf565b84815260208101368660051b89011161113e5787905b8660051b8901821061112e575050608082015260843560a08201524260c0820152600160e0820152610d9c36866004013560248801611bfb565b6101008201526001600160a01b038881168a5260208a81526040808c206024358d528252808c2084518155918401516001830180549185166001600160a01b0319928316179055908401516002830180549190941691161790915560608201518051919291906001600160401b0382116110fd57602090610e208360038701611d9b565b01600384018c5260208c208c5b838110611111575050505060808101518051906001600160401b0382116110fd57602090610e5e8360048701611d9b565b01600484018c5260208c208c5b8381106110e957505050508060a0610100920151600584015560c081015160068401556007830160e0820151151560ff8019835416911617905501518051906001600160401b0382116110d557610ec56008840154611c8a565b601f8111611097575b50602090601f831160011461102b57600892918c9183611020575b50508160011b915f199060031b1c1916179101555b6001600160a01b0387168852600160205260408820805490600160401b8210156106195781610f35916001610f4e94018155611c31565b6024359082549060031b91821b915f19901b1916179055565b6001600160a01b038716885260026020526040882080545f19811461100c577ff027eb8b70490a503951d126e80b22a66771a2f115457bbfa215e214b920429a959361100693608096936001610fe8940190556040519687966060885280600401356060890152806004013560248201838a01376004013587810182018e9052601f01601f19168701878103820160208901520191611ef7565b8381036040850152602435986001600160a01b031696909190611e5e565b0390a480f35b634e487b7160e01b8a52601160045260248afd5b015190505f80610ee9565b90600884018c5260208c20918c5b601f198516811061107f5750918391600193600895601f19811610611067575b505050811b01910155610efe565b01515f1960f88460031b161c191690555f8080611059565b91926020600181928685015181550194019201611039565b6110c590600885018d5260208d20601f850160051c810191602086106110cb575b601f0160051c0190611d64565b5f610ece565b90915081906110b8565b634e487b7160e01b8b52604160045260248bfd5b600190602084519401938184015501610e6b565b634e487b7160e01b8c52604160045260248cfd5b82516001600160a01b031681830155602090920191600101610e2d565b8135815260209182019101610d62565b8a80fd5b6020809161114f84611a63565b815201910190610d23565b60405162461bcd60e51b815260206004820152600c60248201526b496e76616c6964206e616d6560a01b6044820152606490fd5b60405162461bcd60e51b815260206004820152601060248201526f125b9d985b1a59081a5b9d195c9d985b60821b6044820152606490fd5b6111d1919850611b91565b5f965f610cbd565b6040513d5f823e3d90fd5b5f80fd5b60405163c45546f760e01b8152600490fd5b5060018060a01b0387165f525f60205260405f206024355f52602052600360405f2001541515610c6c565b505f8051602061218d833981519152546001600160a01b0316331415610c3f565b60405162461bcd60e51b815260206004820152601760248201527f496e76616c69642044656c654761746f72206f776e65720000000000000000006044820152606490fd5b6040516305a18a2360e31b8152600490fd5b346111e4576020806003193601126111e4576001600160a01b036112bf611a4d565b165f52600190600181526112d560405f20611e10565b9160405191808301818452845180915281604085019501915f5b8281106112fc5785870386f35b83518752958101959281019284016112ef565b346111e4575f3660031901126111e457611327611fbf565b5f8051602061218d83398151915280546001600160a01b031981169091555f906001600160a01b03167f8be0079c531659141344cd1fd0a4f28419497f9722a3daafe3b4186f6b6457e08280a3005b346111e45760403660031901126111e45761138f611a4d565b6001600160a01b03165f908152600160205260409020805460243591908210156111e4576020916113bf91611c31565b90546040519160031b1c8152f35b346111e4575f3660031901126111e4577f00000000000000000000000000000000000000000000000000000000000000006001600160a01b031630036114375760206040517f360894a13ba1a3210667c828492db98dca3e2076cc3735a920a3ca505d382bbc8152f35b60405163703e46dd60e11b8152600490fd5b60403660031901126111e45761145d611a4d565b6024356001600160401b0381116111e457366023820112156111e45761148d903690602481600401359101611bfb565b906001600160a01b037f00000000000000000000000000000000000000000000000000000000000000008116308114908115611621575b50611437576114d1611fbf565b8116906040516352d1902d60e01b8152602081600481865afa5f91816115ed575b5061151057604051634c9c8ce360e01b815260048101849052602490fd5b7f360894a13ba1a3210667c828492db98dca3e2076cc3735a920a3ca505d382bbc929192908181036115d55750823b156115bc5780546001600160a01b03191682179055604051907fbc7cd75a20ee27fd9adebab32041f755214dbc6bffa90cc0225b39da2e5c2d3b5f80a28251156115a357505f808360206115a195519101845af461159b611ff7565b91612129565b005b915050346115ad57005b63b398979f60e01b8152600490fd5b604051634c9c8ce360e01b815260048101839052602490fd5b60249060405190632a87526960e21b82526004820152fd5b9091506020813d602011611619575b8161160960209383611bbf565b810103126111e4575190856114f2565b3d91506115fc565b9050817f360894a13ba1a3210667c828492db98dca3e2076cc3735a920a3ca505d382bbc54161415846114c4565b346111e45760403660031901126111e457611668611a4d565b611670611dcd565b5060018060a01b038091165f5260205f815260405f206024355f52815260405f206040519261169e84611b61565b815484526001908060018401541684860152806002840154166040860152600383019060405192838684549182815201935f52865f20925f905b8883831061174e578a9061173460088b8b6116f5818d0382611bbf565b606086015261170660048201611e10565b6080860152600581015460a0860152600681015460c086015260ff600782015416151560e086015201611cc2565b61010083015261070e604051928284938452830190611a77565b8554821687529095019493830193908301906116d8565b346111e45760403660031901126111e45761177e611a4d565b602480359060018060a01b0380931690815f526020905f825260405f20845f52825260405f2094855415806119c4575b6101de57806001809701541633141590816119a9575b50610688578490835f525f835260405f20855f52835260405f205f81555f838201555f600282015560086003916117fd60038201611d7a565b61180960048201611d7a565b5f60058201555f60068201555f6007820155016118268154611c8a565b908161196e575b5050909150835f5285835260405f20865f905b61189e575b50505050816002929394505f525260405f208054801561188a575f190190557f4dcd504f23c1c204f965486c526a1e35cfb215bb4823dd1be0a172277bb1b3455f80a3005b634e487b7160e01b5f52601160045260245ffd5b81548082101561196857876118b38385611c31565b905490861b1c146118c75750870187611840565b9091929397505f1991828201918211611955576118f76118ea61190f9386611c31565b905490871b1c9185611c31565b90919082549060031b91821b915f19901b1916179055565b81549687156119425750806002959697019261192b8484611c31565b81939154921b1b1916905555839291858080611845565b634e487b7160e01b5f9081526031600452fd5b88634e487b7160e01b5f5260116004525ffd5b50611845565b81601f5f93116001146119855750555b878061182d565b9080839182526119a2601f898420940160051c8401888501611d64565b555561197e565b90505f8051602061218d8339815191525416331415866117c4565b506003860154156117ae565b346111e4575f3660031901126111e457806119ed61070e92611ba4565b60058152640312e302e360dc1b60208201526040519182916020835260208301905b91908251928382525f5b848110611a39575050825f602080949584010152601f8019910116010190565b602081830181015184830182015201611a19565b600435906001600160a01b03821682036111e457565b35906001600160a01b03821682036111e457565b919091610120908184019381518152602094858301519060018060a01b0380921687840152816040850151166040840152606084015194606084015284518091528661014084019501915f905b88838310611b4757505050505060808201519281810360808301528580855192838152019401905f5b818110611b3357505050611b3093945060a082015160a082015260c082015160c082015260e0820151151560e08201526101008092015191818403910152611a0f565b90565b825186529487019491870191600101611aed565b845182168852968701969093019260019190910190611ac4565b61012081019081106001600160401b03821117611b7d57604052565b634e487b7160e01b5f52604160045260245ffd5b6001600160401b038111611b7d57604052565b604081019081106001600160401b03821117611b7d57604052565b90601f801991011681019081106001600160401b03821117611b7d57604052565b6001600160401b038111611b7d57601f01601f191660200190565b929192611c0782611be0565b91611c156040519384611bbf565b8294818452818301116111e4578281602093845f960137010152565b8054821015611c46575f5260205f2001905f90565b634e487b7160e01b5f52603260045260245ffd5b9181601f840112156111e4578235916001600160401b0383116111e4576020808501948460051b0101116111e457565b90600182811c92168015611cb8575b6020831014611ca457565b634e487b7160e01b5f52602260045260245ffd5b91607f1691611c99565b9060405191825f8254611cd481611c8a565b908184526020946001916001811690815f14611d425750600114611d04575b505050611d0292500383611bbf565b565b5f90815285812095935091905b818310611d2a575050611d0293508201015f8080611cf3565b85548884018501529485019487945091830191611d11565b92505050611d0294925060ff191682840152151560051b8201015f8080611cf3565b818110611d6f575050565b5f8155600101611d64565b80545f825580611d88575050565b611d02915f5260205f2090810190611d64565b90600160401b8111611b7d57815490808355818110611db957505050565b611d02925f5260205f209182019101611d64565b60405190611dda82611b61565b6060610100835f81525f60208201525f604082015282808201528260808201525f60a08201525f60c08201525f60e08201520152565b90604051918281549182825260209260208301915f5260205f20935f905b828210611e4457505050611d0292500383611bbf565b855484526001958601958895509381019390910190611e2e565b81835290916001600160fb1b0383116111e45760209260051b809284830137010190565b949391949290928560408201604083525260608101935f965b808810611eb7575050611b309495506020818503910152611e5e565b90946001906001600160a01b03611ecd88611a63565b1681526020809101960197019690611e9b565b6001600160401b038111611b7d5760051b60200190565b9190808252602080920192915f5b828110611f13575050505090565b909192938280600192838060a01b03611f2b89611a63565b16815201950193929101611f05565b8051821015611c465760209160051b010190565b6001600160a01b03908116908115611fa7575f8051602061218d83398151915280546001600160a01b031981168417909155167f8be0079c531659141344cd1fd0a4f28419497f9722a3daafe3b4186f6b6457e05f80a3565b604051631e4fbdf760e01b81525f6004820152602490fd5b5f8051602061218d833981519152546001600160a01b03163303611fdf57565b60405163118cdaa760e01b8152336004820152602490fd5b3d15612021573d9061200882611be0565b916120166040519384611bbf565b82523d5f602084013e565b606090565b803b1561206d575f80916040516020810190638da5cb5b60e01b82526004815261204f81611ba4565b51915afa61205b611ff7565b81612064575090565b60209150511490565b505f90565b803b1561206d575f80916040516020810190638da5cb5b60e01b82526004815261209b81611ba4565b51915afa6120a7611ff7565b90806120dd575b6120b757505f90565b6020818051810103126111e457602001516001600160a01b038116908190036111e45790565b5060208151146120ae565b60ff7ff0c57e16840df040f15088dc2f81fe391c3923bec73e23a9662efc9c229c6a005460401c161561211757565b604051631afcd79f60e31b8152600490fd5b90612150575080511561213e57602081519101fd5b60405163d6bda27560e01b8152600490fd5b81511580612183575b612161575090565b604051639996b31560e01b81526001600160a01b039091166004820152602490fd5b50803b1561215956fe9016d09d72d40fdae2fd8ceac6b6234c7706214fd39c1cd1e609a0528c199300a26469706673582212201db3a3a3b8e97357214dfbd0d89ba13875545553021b9d10fde720fdba279c9164736f6c63430008170033","linkReferences":{"src/libraries/StrategyLibrary.sol":{"StrategyLibrary":[{"start":1507,"length":20},{"start":3395,"length":20}]}}},"methodIdentifiers":{"UPGRADE_INTERFACE_VERSION()":"ad3cb1cc","createStrategy(address,uint256,address[],uint256[],uint256,string)":"751c4c83","deleteStrategy(address,uint256)":"29caf0bb","getAllUserStrategies(address)":"787cc3e8","getStrategy(address,uint256)":"4648f903","getUserStrategyCount(address)":"d88490d0","getUserStrategyIds(address)":"7323d1dc","getVersion()":"0d8e6e2c","initialize(address)":"c4d66de8","owner()":"8da5cb5b","pauseStrategy(address,uint256)":"a8754aa2","proxiableUUID()":"52d1902d","rebalanceExecutor()":"d77ab72d","renounceOwnership()":"715018a6","resumeStrategy(address,uint256)":"9048086f","setRebalanceExecutor(address)":"ce6e13ff","strategies(address,uint256)":"9f8f3244","transferOwnership(address)":"f2fde38b","updateLastRebalanceTime(address,uint256)":"f405e5b8","updateStrategy(address,uint256,address[],uint256[])":"b79f8a8b","upgradeToAndCall(address,bytes)":"4f1ef286","userStrategyCount(address)":"fe25333a","userStrategyIds(address,uint256)":"6c451e4f"},"id":82}